:020000040800F2
:105000000050002011510008F5650008F765000800
:10501000F9650008FB650008FD6500080000000058
:10502000000000000000000000000000FF65000814
:10503000016600080000000003660008056600081D
:105040006151000861510008615100081D680008A5
:10505000615100086151000859660008796600082E
:1050600099660008CD660008ED66000861510008E9
:105070006151000861510008615100087968000819
:10508000615100086151000809660008615100087B
:105090007D68000861510008615100080D67000833
:1050A000615100086151000861510008D56700088E
:1050B000615100086151000861510008296600082B
:1050C000396600086151000861510008496600080E
:1050D000615100086151000819660008615100081B
:1050E0005D67000839680008615100080000000091
:1050F00000000000000000000000000000000000B0
:0C51000000000000000000005FF808F153
:10511000002100F004B80D4B5B58435004310C489B
:105120000C4B42189A42FFF4F6AF0B4A00F003B85A
:10513000002342F8043B094B9A42FFF4F9AF04F014
:1051400001FC00F04FFA00F02FF87047083D01080D
:1051500000000020BC090020BC09002070220020B3
:10516000FFF7FEBF07B5002100910A460B46024833
:1051700000F08EFD0EBD00BFBC09002010B501314E
:10518000002393420ED0040F092C01D8303400E0E4
:10519000373401F8014C01330024000101F8024BBF
:1051A000DBB2EEE710BD000038B54FF000604FF401
:1051B000A04102F0FBFC01243C4B3D4821461C7001
:1051C00002F0B0FD03F07CFE03F03CFB21464020E2
:1051D00002F066FE6FF07F4003F086FCE72003F0EC
:1051E000F3FC3448047003F04FFB7D2002F07CFE9A
:1051F00018B131490C7002F08BFE40F6B83003F064
:10520000ABFB04F015F904F0A1FA2C4801F04AF8C0
:1052100001F008F92A4A15786DB32A4C2378CBB9E6
:1052200000F0A6FB002811D002DA4FF47F0007E05F
:10523000012801D1244803E0022803D14FF0FF10D8
:1052400003F052FCE72003F0BFFC03E01F490120FC
:105250002070087000F050FB68B91D4A15780DB138
:1052600003F0D8FC1B4B13481649154A00241C7048
:1052700004700C701470134D2C78002CC8D0154B92
:1052800018780028C4D10C490D78002DC0D10F4CDE
:10529000227822B1104B13B1AFF3008025700F4874
:1052A00008B1AFF3008000F019FCB1E75A180020F4
:1052B00000043000D3170020042100200559000805
:1052C000D0170020D11700200060FF00C409002083
:1052D00054180020D2170020000000000000000039
:1052E0004B4B4C495A6870B5501C58600C6814B14F
:1052F0000B685A1E0A604848017821B14748E0B15E
:1053000000F048FB19E0464C236813B12268511E97
:1053100012E0444A107880B943490B786BB9434A8C
:10532000107850B9424E434D317899B1E72003F0DF
:10533000C7FC2B7863B1142121603A490C78FCB981
:10534000204603F0F7FD40F6B733984246D817E001
:105350000121F1E72B784BB14FF6FF7003F0C4FB4E
:105360000124E72003F030FC3470E6E7E72003F087
:1053700075FC314A107808B13221DDE76421DBE7A2
:10538000002003F0D7FD41F65732904205D90020A6
:1053900003F0D8FD294901200870294B1A7872B909
:1053A0002448017859B1274B47F22F511868884299
:1053B0002AD91A60164B197809B900F051FB224816
:1053C0000268B2F57A7F05D300220260BDE8704022
:1053D00002F006BD0368591C016070BD204603F051
:1053E000B1FD174B1A78002AD7D11848017829B196
:1053F000114B104A18781178014202D00120094956
:10540000CAE700F02DFBF9E71A68501C1860D6E7D0
:10541000C4090020102100205418002095590008CC
:1054200008210020CE170020D2170020D41700201A
:10543000D3170020D1170020D0170020DD1700203F
:10544000E7170020D817002014210020CF170020D4
:1054500008B5064B186003F095FF03F0A9FF03F0B1
:10546000C7FFBDE8084002F025B900BF800000205A
:10547000074B1868052808D106490A7A012A04D181
:10548000887A0B7BC11AC8B270470020704700BFF2
:1054900074180020C40900200D4B10B518680528A9
:1054A00013D10C4C217A01290FD16289A389D01A1A
:1054B000012804D100210320217202F066FAA38999
:1054C000E218591C907BA18110BD4FF0FF3010BD38
:1054D00074180020C4090020084B196805290BD155
:1054E000074B1A6D991881F85400501CB0F5807F55
:1054F000186501D100221A65704700BF741800209A
:10550000C409002070B5234A92F85431012B3FD0D2
:10551000D2F85801B0F5807F02D10021C2F85811AD
:10552000D2F85831126D1B48934203D1002180F804
:10553000541170BD8CBFC3F58072C3EB0202154CD1
:10554000C0F85C21D4F85C5199B2402D07D94033A2
:10555000403DC4F85831C4F85C51402606E0E818D4
:105560000023AEB2C4F85801C4F85C310A4A0125E0
:105570005018C021324684F8545102F07DF9284673
:10558000314602F083FA2846BDE8704002F0ECB9DB
:1055900070BD00BFC4090020180A0020094B10B5D7
:1055A00093E814000833186810180AD00822064936
:1055B000FFF7E4FD054920460422BDE81040FFF74F
:1055C000DDBD10BDE8F7FF1F2F0000203F000020C9
:1055D00038B50D460446AC4203D254F8043B984714
:1055E000F9E738BD08B507480749FFF7F1FF074855
:1055F0000749FFF7EDFF07480749BDE80840FFF7F7
:10560000E7BF00BFC03C0108C03C0108C03C010826
:10561000083D0108083D0108083D0108FEE70000BB
:10562000054A08B51368054918188842106001D961
:105630000AF0AAFB184608BD000000200048002020
:105640004FF0FF307047012070470000014B186891
:10565000704700BF240B0020064B0246582000FB79
:10566000013101F1080303CB1060516018689060AC
:10567000704700BF240B00200E4B2DE9F041D3F8FA
:10568000647180460024BC4211DA14256543094E3A
:105690004146701900F5B6700C220BF0CDFC20B914
:1056A0007519D5F86801BDE8F0810134EBE70020F9
:1056B000BDE8F081240B00202DE9F04788B0814639
:1056C00068460D4600F0D4FB1E4B0024D3F800A022
:1056D00054452DDA55B3582666431A4F494607F10B
:1056E000040808EB060004300C220BF0A5FCE8B916
:1056F00028460BF071FC06F11001402834BF024629
:10570000402208EB010029460AF066FFBE1901227B
:1057100086F85820694604A8746800F0CBFB04A8FA
:10572000A047044604A800F061FB03E00134CFE782
:105730004FF0FF34684600F059FB204608B0BDE842
:10574000F08700BF240B002008B103F07FBA03F0FC
:1057500061BA0000024B00221A7003F02DBF00BF97
:10576000D2170020034B01224FF4C0201A7003F01F
:10577000BFBE00BFD21700202DE9F341264B0746DC
:105780001878884618B925490D782E4615B14FF07E
:10579000FF303FE0224C0120D4F8303284F83452FC
:1057A00003F01F0100FA01F05A0984F8355284F819
:1057B000365284F8375204EB8202D2F83412C4F81D
:1057C00038520143C2F8341204F50E7041F28832A7
:1057D000C4F83C2204F50D7100902A46581C2B4653
:1057E00005F03EFB002815DDD4F83032590904EBF2
:1057F0008104D4F8344203F01F0244FA02F414F096
:10580000010007D0184639463346424605F0C0FB32
:10581000044B1E60BDE8FC81E6170020E71700205E
:10582000240B0020D81700200A4604490346D1F86B
:1058300030021946002305F023BC00BF240B0020D2
:1058400030B51C48ADF5777D06F0C0F800282ED1A4
:1058500019481A4B1A491B4A0C901B4D1B480B93B5
:105860000D910E921A4B1B491B4A109512901B4D1D
:105870001B481C4C119304911B4B1C4905921C4A5C
:10588000069508905DAD13A8079309910A920F94AD
:10589000039004AC029503F0A1FE284603F0A4FE99
:1058A00000940448134902AA0BAB06F096F80DF5D4
:1058B000777D30BD5C0E002079570008295800081C
:1058C00065570008555700083D950008115B000812
:1058D000495700084D56000859560008B9560008A7
:1058E0007956000819960008C15A0008F595000875
:1058F00009960008E8F7FF1F014806F0DCBB00BF6F
:105900005C0E002030B5022011228DB0014605F05A
:1059100027FA051E28DB154907A806F04FF90223D0
:1059200016200024ADF80C308DF80E003321E02253
:105930000123BB208DF811408DF80F108DF8102039
:105940008DF812308DF813000324102203A9009162
:10595000019200231322284607A905F09BFB013C76
:10596000F3D1284605F02AFA0DB030BDE8F7FF1F45
:1059700010B5074CFFF764FF204606F02AF82046D2
:1059800006F018FB0446FFF7BDFF204610BD00BF20
:105990005C0E002038B5114CD4F8F85A2DB1D4F86B
:1059A000F81A4B1EC4F8F83A38BDD4F8FC3A0C4A41
:1059B00052F8230003F0BEF8E72003F005F9094A86
:1059C0006420D4F8FC1AC4F8F80A10684B1C83420F
:1059D000C4F8FC3AA8BFC4F8FC5A38BD240B002018
:1059E000581101080400002010B5054CD4F830020D
:1059F00005F0E4F918B94FF0FF33C4F8303210BDA8
:105A0000240B002008B5FFF7EFFF0121022006223A
:105A100005F0A6F911490028C1F830021BDB02226B
:105A2000A1F8002B1623332281F8023B81F8032BC7
:105A30003623D02281F8043B81F8052BE52304228C
:105A400081F8072B81F8063B102201F53061BDE893
:105A5000084005F0D9B94FF0FF3008BD240B0020F5
:105A6000044B012200205A801880D886024B1A70FD
:105A7000704700BF18220020E61700200F4B2DE9C9
:105A8000F041D3F8647180460024BC4211DA142539
:105A900065430A4E4146701900F5B6700C220BF0B2
:105AA000CBFA20B9751995F87801BDE8F081013479
:105AB000EBE74FF0FF30BDE8F08100BF240B002082
:105AC00008B5FFF7DBFF0138082803D8024B191887
:105AD000087F08BD022008BD58110108084B0022AC
:105AE000D3F8401203F511738A4208DA93F8500094
:105AF00010B1002083F8500001325133F4E77047B1
:105B0000240B0020014805F051BF00BF5C0E0020AF
:105B1000014B1868704700BFC809002007B5002175
:105B200000910A460B46024800F0B2F80EBD00BFD5
:105B300040160020024B18785978401A704700BF71
:105B400048160020064B5A781978914204D99818C3
:105B5000013280785A7070474FF0FF30704700BFB5
:105B600048160020054B5A781978914202D99818A6
:105B7000807870474FF0FF30704700BF4816002014
:105B800070470000F8B5094B054693F82200164609
:105B900050B10C468F18BC4206D0296828460A68C6
:105BA00014F8011B9047F6E73046F8BD4816002070
:105BB00010B50C4B012293F822408CB193F823408E
:105BC0001F2C02D94260002010BD93F824001C183D
:105BD00084F82510411CC8B283F8240083F8230000
:105BE000104610BD4816002000224260024A4FF4C1
:105BF0007A718160026070478811010870477047B0
:105C000013B5084C0021009104F164000A460B46CC
:105C100000F03EF804F16C0002B0BDE81040FFF760
:105C2000E3BF00BF4816002008B5034B53F820001F
:105C300000B1804708BD00BFC416002007B5002191
:105C400000910A460B46024800F022F80EBD00BF44
:105C5000041700202DE9F041002407460E46254692
:105C60003B1919790A22304600F08CF82E21804623
:105C7000304600F055F801344044032C0544EFD180
:105C80003046F9790A2200F07DF82818BDE8F08145
:105C900030B58371044D9DF80C30044605600171E8
:105CA0004271C37130BD00BFA8110108044B054A01
:105CB00000201A60187158719871D871704700BF30
:105CC0000C170020A811010807B5002100910A4611
:105CD0000B460248FFF7DCFF0EBD00BF1417002083
:105CE000F8B506460C468F180025BC4207D033682D
:105CF00030461A6814F8011B90472D18F5E728461E
:105D0000F8BD38B505460C46084641B10BF064F9BC
:105D10002B6802465B6828462146984738BD38BD47
:105D200008B503681A68904708BD70B500238AB0AB
:105D30008DF82430012A98BF0A220DF12303B1FB0C
:105D4000F2F505FB1211CCB2092C1E4601D83034F5
:105D500000E03734E4B203F801492946002DEED1C2
:105D60003146FFF7CEFF0AB070BD10B5044622B928
:105D70000268C9B21268904710BDD2B2BDE81040A7
:105D8000FFF7D3BFFFF7F1BF07B5002100910A4627
:105D90000B460248FFF77CFF0EBD00BF2017002016
:105DA00007B5002100910A460B460248FFF770FF35
:105DB0000EBD00BF281700207047000007B5002166
:105DC00000910A460B460248FFF762FF0EBD00BF76
:105DD0004817002007B5002100910A460B460248EB
:105DE000FFF756FF0EBD00BF5417002010B5044644
:105DF00000680AF0F5F8204610BD10B504460068AA
:105E000008B10AF0EDF800232360A360636010BDC1
:105E100038B504460D46006801310AF021FE10B184
:105E200084E82100012038BD036810B5044613B191
:105E30004068884207D22046FFF7EAFF20B1A168F8
:105E400009B922681170012010BD70B50E461146C7
:105E500004461546FFF7E8FF18B92046FFF7CDFFC7
:105E600004E0A560206831460BF058F8204670BD6C
:105E700038B50023044603604360836003730D4616
:105E800039B108460BF0A8F8294602462046FFF72C
:105E9000DCFF204638BD884210B50B46044607D0CB
:105EA000096819B19A68FFF7D0FF01E0FFF7A5FF75
:105EB000204610BD002310B5044603604360836094
:105EC0000373FFF7E8FF204610BD000007B500216F
:105ED00000910A460B460248FFF7DAFE0EBD00BFEE
:105EE0005C17002007B5002100910A460B460248C6
:105EF000FFF7CEFE0EBD00BF6417002007B50021DE
:105F000000910A460B460248FFF7C2FE0EBD00BFD5
:105F10006C1700204FF0FF307047704708B50548F8
:105F200002F063FA0348802102F067FA0028F9D0F2
:105F3000012008BD00440040202108B5034802F0BC
:105F40005CFA003018BF012008BD00BF00440040CB
:105F500008B5024802F04DFA08BD00BF00440040F9
:105F600000224260024A4FF47A71816002607047F9
:105F7000B811010813B5084C0021009104F1140078
:105F80000A460B46FFF784FE04F11C0002B0BDE890
:105F90001040FFF7E5BF00BF7417002070474FF0B7
:105FA000FF307047084608B5FFF796FA012008BD94
:105FB00008B5FFF75DFA08BDFFF76EBA0022426030
:105FC000024A4FF47A71816002607047D81101086B
:105FD0000846FFF73DBA000013B5074C00210091B9
:105FE00020460A460B46FFF753FE04F1080002B0B4
:105FF000BDE81040FFF7E2BFA017002000230360B8
:10600000184670470023036018467047002303605A
:1060100018467047F0B587B00C4607460AF0DCFF1B
:10602000064620460AF0D8FF012518231E21022229
:10603000019302910392059000230095049403209C
:106040003946324605F066F9024B18705D7007B0AC
:10605000F0BD00BFB817002048F20203984210B507
:1060600017D008DC992841D0591E884242D12248D5
:106070000122427110BD48F21002904225D07032C8
:10608000904237D11C48012100238170C1700371F7
:1060900010BD194C62793AB14FF47F4002F024FDF3
:1060A000E72002F091FD06E0A07910B1431EA37134
:1060B00001E00121A1750022227662716276E2750B
:1060C000A276E2762277226210BD0A7D0A4852B992
:1060D0000123C3754FF47F4002F006FDE720BDE8C1
:1060E000104002F071BD0021C17510BD024B0121AD
:1060F00083F8241010BD00BFB81700201FB54FF063
:106100003C0C0A234FF461514FF461628DE80E108C
:10611000684601A902AA03AB04F060F905B000BD0E
:106120001FB50023009301930293039301A86946CE
:1061300002AA03AB04F01AF905B000BD30B5554D05
:10614000002497B0FF202C76AC706C76EC70AC76A7
:106150006C70EC766C71EC7585F824402C6202F062
:10616000C3FCE72002F030FD21462246204605F020
:10617000ADF82B46012103F8074F0E200A4604F024
:10618000B1F96B79012B05D1642002F075FB03F0A6
:106190004FFEF6E710210C2004F0F0F93E4804F021
:1061A000B7FD3E4805F006FA012005F0E7F968461C
:1061B0003B4900F063FD374D6A78A87852EA000346
:1061C0001ED195F82540002C5AD0FF2005F08AF901
:1061D000002855D11A24013C06D0E72002F03EFDEC
:1061E000322002F049FBF6E72A4D0E202B4603F839
:1061F000064F0121224604F075F985F82540DAE7BB
:10620000E72002F0E1FC01210E200022AB1D04F08A
:106210003BF9A97811B105F0EBF928701D4C01216B
:10622000237800225D1C234603F8065F0E2004F04D
:1062300059F900200146012205F048F801252346BE
:106240002A4603F8075F29460E2004F04BF904F0B4
:10625000C3FF642002F010FB002004F071FF48F23D
:10626000442084F8265005F057F94FF47F4002F09F
:106270003BFCE72002F0A8FC0022A27517B030BD5D
:10628000E72002F0EBFCFA2002F0F6FA684600F094
:1062900051FD90E7B8170020F0110108140000200C
:1062A0001560000830B53E4C85B0A06202F09AFF40
:1062B00002F0DAFE3B4B3C483C493D4A00930190DA
:1062C0003C4B029103923C493C4A3D4804F024FF78
:1062D000642002F0D1FA002004F032FF00250123EF
:1062E00048F24420E57684F8263005F015F9354863
:1062F0000188012906D00E2010212A46A31D04F092
:10630000C3F8A8B1FF2005F0EDF810210E2004F02D
:1063100035F900212C4B0024CC5401311029F9D13E
:1063200022460E2004F0DEF8264A148003F0A0F87E
:106330001B4C237A4BB9FFF7E1FE0121234603F8FA
:10634000081F0E20022204F0CDF8154C207990B9D8
:10635000A17911B90122A2750DE0E07958B9014681
:10636000012204F0B3FF0121234603F8071F0E208A
:106370000A4604F0B7F80A4B187908B9997D31B983
:106380004FF47F4002F0B0FBE72002F01DFC0F4805
:1063900004F0DAF805B0BDE83040FFF7C1BE00BF39
:1063A000B81700202191000835910008A19100083C
:1063B000C99100080D600008FD5F00080560000835
:1063C0005960000856010020BE170020E417002085
:1063D00030B502200121062285B004F0C1FC051E63
:1063E00002DA4FF0FF341AE000213522082402239C
:1063F0008DF802108DF80320694610228DF80440B4
:106400008DF805408DF806408DF80740ADF8003056
:1064100004F0FAFC041EE4DB284604F0CFFC20461E
:1064200005B030BDF7B5694C94F82E202346002AFC
:1064300050D194F82F0000284CD194F8260020B9B0
:1064400004F07EFE012184F82610604DA87D10B175
:10645000FFF774FE19E02979B9B1EC7DACB921469A
:106460002246204604F032FF59480AF0B5FD594E45
:10647000074630460AF0B0FD00960190711F0320D8
:106480003A46234604F0BEFE2C71504BDA78012ABE
:1064900014D1D87D012811D1597901290ED10324B5
:1064A0004D480AF099FD013C82B24B49012004F0AD
:1064B000FDFD14F0FF04F3D1444BDC70434CE27D4E
:1064C000002A00F0818094F82F0000287CD1217EE2
:1064D00051B379E093F826503C4C002DB5D00025FF
:1064E000284684F82E50657184F82650E575257687
:1064F0006576A576E5762577256202F065FE64204F
:1065000002F0BAF9A27D3AB1284604F019FE01233F
:1065100084F82630FFF712FE4FF47F4002F0E4FAD1
:10652000E72002F051FB90E7642002F0A5F904F1A6
:10653000300003F097FF247F0CB34FF47F0002F08C
:10654000D3FA224C227F92B1E72002F03DFB4FF4B8
:10655000FA7002F091F9E72002F064FB4FF4FA7050
:1065600002F08AF9237F581EC1B22177E9E723465A
:1065700003F8092F0E200121032203F0B3FF4FF689
:10658000FF7002F0B1FAE72002F01EFBFFF73AFAC3
:1065900000280E4C16DA94F82E00A8B9FFF718FF61
:1065A000002801DA022100E003212177074C0E20A8
:1065B000227F234603F8092F0121032203F092FFD3
:1065C000002300E001232376FEBD00BFB8170020A2
:1065D000170000201C0000202500002007B5002126
:1065E00000910A460B460248FFF752FB0EBD00BF62
:1065F000241800207047FEE7FEE7FEE7FEE770473D
:1066000070477047FEF76CBE08B5024B0BB1AFF395
:10661000008008BD0000000008B5024B0BB1AFF3CD
:10662000008008BD0000000008B5024B0BB1FFF769
:10663000E5FA08BDFD5B000808B5024B0BB1FFF79A
:10664000DEFA08BDFF5B000808B5024B0BB1FFF78F
:10665000B3FB08BDB95D000808B5012001F0F2FAEE
:1066600038B1012001F0FEFA024B13B10020FFF710
:10667000DBFA08BD295C000808B5022001F0E2FA47
:1066800038B1022001F0EEFA024B13B10120FFF7FE
:10669000CBFA08BD295C000808B5042001F0D2FA45
:1066A00078B1042001F0DEFA0020064B0146188084
:1066B00002F094FB044810210122BDE8084001F0DB
:1066C0004CBE08BD56180020002C014008B508201B
:1066D00001F0B8FA38B1082001F0C4FA024B13B146
:1066E0000320FFF7A1FA08BD295C000808B51020B7
:1066F00001F0A8FA38B1102001F0B4FA024B13B13E
:106700000420FFF791FA08BD295C000808B5202095
:1067100001F098FA38B1202001F0A4FA0E4B13B121
:106720000520FFF781FA402001F08CFA38B14020B3
:1067300001F098FA084810B10620FFF775FA80209A
:1067400001F080FA38B1802001F08CFA024911B1D1
:106750000720FFF769FA08BD295C000808B54FF467
:10676000005001F06FFA40B14FF4005001F07AFA96
:10677000174B13B10D20FFF757FA4FF4804001F08B
:1067800061FA40B14FF4804001F06CFA104810B14A
:106790000E20FFF749FA4FF4004001F053FA40B1E0
:1067A0004FF4004001F05EFA094911B10F20FFF7E4
:1067B0003BFA4FF4006001F045FA38B14FF4006045
:1067C00001F050FABDE8084001F0F2BF08BD00BF7B
:1067D000295C000808B50F48102101F0F7FDC0B191
:1067E0000C48102101F0FDFD002002F093FB28B9B8
:1067F000094B1A880A3290B2188008BD102105484A
:10680000002201F0AAFD00200121BDE8084002F0AD
:10681000E5BA08BD002C01405618002008B501203B
:1068200001F0CAFB30B1012001F0D8FBBDE80840FF
:1068300001F0A6BB08BD000008B5022001F0BCFBBA
:10684000B0B10C4B00224FF400301A7001F00AFA7C
:10685000012001F0EFFA10B1012001F0F5FA01F08A
:106860008FFB022001F0BAFBBDE8084001F088BBB5
:1068700008BD00BFE717002001F028BF00F062B894
:1068800038B514490B78012B23D1134A13680BB97F
:106890000B7038BD114C402B206881B205D94030B7
:1068A000403B20601360402504E09DB2C3180020E7
:1068B000236010600A4A5018C0212A4600F0DCFF0D
:1068C0000120294601F0E2F80120BDE8384001F03E
:1068D0004BB838BD180B0020200B00201C0B0020EB
:1068E000180A0020094908B50020094B0122088038
:1068F00003201A7001F0F6F8064B0246188006488D
:106900004FF48871BDE8084000F0CDBFD0090020E9
:10691000CC090020CE090020D2090020074B1868BE
:10692000052809D1064B1A68511C052A196003D1A4
:1069300000201860FEF7E6BD704700BF7418002005
:106940002C1800203A4A38B511683A4B88B23A4DB3
:1069500018801C882988214001F4007084B244B159
:106960004FF6FF5515609A78511CC8B29870FFF722
:10697000D5FF304C304B25881A882A4002F400415C
:1069800088B225461C4608B100F0B0FE2A8823884C
:10699000134003F4806188B230B1254B27494FF68C
:1069A000FF321A6048688047224A234B11881B88AF
:1069B000194001F4005081B219B11D494DF6FF7024
:1069C00008601288134003F4805398B230B1184A1B
:1069D0004EF6FF711160002003F06AF8154B16495E
:1069E00018880A88024002F4006398B260B1144922
:1069F0000A7812B103F03CF802E0022003F058F8E4
:106A00000B4B4FF2FF7018600A490B480A88038845
:106A1000134003F480718AB242B1054B4FF6FF6018
:106A200018600720BDE8384003F042B838BD00BF09
:106A3000445C004030180020E0180020B80000201E
:106A400078010020034B987A10B1034905220A60AF
:106A5000704700BFBC18002074180020014B0422AE
:106A60001A60704774180020034B1A78202A01D14D
:106A700000201870704700BF3418002070470000D5
:106A8000212810B508D111480368197801F07F0258
:106A9000212A11D0022010BD2028FBD10B4B1968F0
:106AA0000A780B4902F07F030A4A212B0CBF0B46E0
:106AB000002310700BB9EDE7074B044C206800244D
:106AC0008361448220469847204610BDDC18002090
:106AD000296B000834180020116B0008074B196857
:106AE0000A7802F07F03212B05D1022801D1002072
:106AF00070472228FBD00220704700BFDC1800201E
:106B000009B1022070470128FBD8084670470000F1
:106B100020B9034B082219680A8270470148704760
:106B2000DC1800208000002020B9034B08221968DF
:106B30000A82704701487047DC180020800000205E
:106B4000054B1968CA78042A04D8044B03EBC20128
:106B500000F04CBB00207047DC18002088000020AB
:106B6000014900F043BB00BFA8000020014900F02C
:106B70003DBB00BFB0000020334A344BD1791868C8
:106B800010B5002441728472C472204600F09EFE4B
:106B900020464FF4007100F0A1FE1021204600F0C5
:106BA000A9FE4021204600F045FF8021204600F04C
:106BB00031FF204600F0FAFE254B204693F8641082
:106BC00000F072FF204600F0E0FE0120214600F0B8
:106BD00085FE0120C02100F01DFF0120202100F0D2
:106BE00089FE0120214600F0A2FE02204FF4C06180
:106BF00000F074FE02204FF4807100F00BFF0220C1
:106C0000214600F094FE0220202100F073FE0320B4
:106C1000214600F063FE03204FF4887100F00AFF64
:106C20000320402100F040FF03204FF4405100F0CA
:106C30007EFE0320214600F05DFE204600F0E8FCC9
:106C4000044A0120106010BD5D120108DC1800200C
:106C5000800000207418002010B5FEF79FFC054B43
:106C600000241868847202F0EBFE00F051FF024924
:106C70000C6010BDDC1800207418002038B50446E4
:106C80000D46FFF79BF9204625614FF41651FFF79B
:106C90009FF9204638BD000007B5002100910A4643
:106CA0000B460248FEF7F4FF0EBD00BF3818002067
:106CB00070B506460D46002428460AF08DF9844238
:106CC00008D2295D3046FFF76DF9012001F0D4FDAF
:106CD0000134F1E770BD0000F8B504460D4601F13E
:106CE00020072046FFF764F90028FADD2046FFF769
:106CF00063F9BD42C6B206D100232B7020460C4971
:106D0000FFF7D6FF0AE00D2EF6D00A2EF4D020466B
:106D10003146FFF747F905F8016BE2E72046FFF738
:106D200047F9002803DD2046FFF746F9F6E7F8BDEE
:106D3000083C01087FB50446FFF73AF9002871DDE9
:106D40002046FFF739F9C0B277283CD104F1140688
:106D500004F1350500212122304609F0C3FD21222E
:106D60000021284609F0BEFD20462F49FFF7A0FF6D
:106D700020463146FFF7B0FF20462C49FFF798FF29
:106D800020462946FFF7A8FF20462949FFF790FF34
:106D9000226930462946904720462649FFF788FF5A
:106DA00020462549FFF784FF20462449FFF780FF4E
:106DB00020462349FFF77CFF20462249FFF778FF52
:106DC0002046214929E069282CD1204A01AB1068CE
:106DD0005168002503C39168204619601C49FFF7DC
:106DE00067FF01AEAE5D300900F13001392988BF7F
:106DF00000F1570106F00F062046FFF7D3F806F121
:106E00003001392988BF06F1570120460135FFF7C7
:106E1000C9F80C2DE5D10F49204604B0BDE87040FB
:106E2000FFF746BF04B070BD303B0108373B010897
:106E3000423B0108853B0108A53B0108D83B0108FE
:106E40000B3C01084A3C01087B3C0108E8F7FF1FA6
:106E5000913C0108083C010810B5064C18B923689C
:106E600001221A8210BD044B186801688847206807
:106E70000A3010BDDC180020D818002010B5064CD0
:106E800018B9236801221A8210BD044B1868816862
:106E9000884720680C3010BDDC180020D81800206E
:106EA00008B5234A18B9136802221A8208BD214B7B
:106EB000002012681880117811F07F0113D1507AE8
:106EC00000F02002D1B209B102221A7000F0400392
:106ED000D8B2184B18B11A7842F001011EE01978A7
:106EE00021F001011AE001291FD002291ED1507999
:106EF00000F00F024FEA820110F0800F01F1804094
:106F000000F5B842116803D001F03002102A03E006
:106F100001F44050B0F5805F01D101211970064B9A
:106F2000186801698847034808BD184608BD00BFB6
:106F3000DC180020AC180020D8180020F8B5224B2F
:106F40001C68238A267AABB9042E13D11F48017816
:106F500001291F490AD11F4C226894B21E4AA21867
:106F60005200136030220A80037028E010260E8041
:106F7000072624E0A58AA169AB428CBF022604261D
:106F80009D4228BF1D46284688470746002000F03E
:106F900061FD2A460146384600F06EFC2946002075
:106FA00000F074FD208A638A421BED1808480B4BE1
:106FB000228230214FF44052018065821A80024BB8
:106FC00018680672F8BD00BFDC18002040180020C9
:106FD000E4180020505C004002300020E21800203D
:106FE00010B50A4B0A4918684B78C27893420AD305
:106FF000817841B9848834B982720648026853683E
:107000009847204610BD022010BD00BFDC180020AC
:107010000C010020D818002038B50E4A0E4C10681C
:1070200023688269D9785879904721688B7A7BB137
:1070300070B9087960B98D7855B9084A1168CB687C
:10704000984720684279C178C2720173284638BDDA
:10705000022038BDB4180020DC180020D818002009
:1070600010B5324B1B68187810F07F0004D15A7AA3
:1070700022F02001597210BD022855D15A88002AE9
:1070800053D11979002950D15A7922F080004FEA62
:10709000800404F1804101F5B8442168244C12F0C9
:1070A000800F247814BF01F0300101F44051A04258
:1070B0003AD2002938D09B7A002B35D0840002F0D8
:1070C000800204F18043D1B203F5B844226861B173
:1070D00002F03002102A21D1C4B2204600F087FC11
:1070E0002046302100F006FC18E002F44051B1F5D2
:1070F000805F13D128B90F4B93F82C1000F0D4FC0B
:1071000001E000F062FC20684BF68F72024082F4CE
:10711000405141F4004343F08000206006490B6871
:1071200058698047002010BD022010BDDC180020E7
:107130000C010020B8000020D818002010B51F4B0B
:1071400019684A7922F080034FEA830000F18044F5
:1071500004F5B8401A4C0068247812F0800F14BF70
:1071600000F0300000F44050A34224D24C8814BBFD
:1071700008B3897AF9B19B0003F1804102F08002E3
:1071800001F5B843D0B2196828B148F6BF720A4079
:1071900082F0100004E04BF68F720A4082F48050B7
:1071A00040F4004141F080001860064B1A68916974
:1071B0008847002010BD022010BD00BFDC18002051
:1071C0000C010020D818002008B5064B1868064BA3
:1071D000427A42F0200141721868C269904700204B
:1071E00008BD00BFDC180020D8180020054B1A6825
:1071F000538A18B98988CB1A138270470868C01857
:10720000704700BFDC18002008B50B4B002093F836
:107210002C1000F049FC09480168087A082806D1BA
:10722000074B4FF480521A80064A10211180B0F1AA
:1072300009035842584108BDB8000020DC1800205E
:10724000E2180020E418002070B52E4B1C68207A4C
:1072500002284FD004284DD0032801D0052843D15F
:10726000A169208AA9B1A0B1A58A854228BF054697
:1072700028468847228A0646608A531B291861825D
:107280002382002000F0F4FB2A460146304600F03D
:107290000AFB228A52B11C4B4FF440501880002048
:1072A000014600F0F3FB194A30211180208AA38A9D
:1072B0001449834202D80B68032202E018B10B681C
:1072C00005221A720CE00A680623114913720A6833
:1072D000104993B25A1853000C49186030200880A6
:1072E000084801680B7A06E0072803D10A490A68B2
:1072F000D36898470823034A10680372BDE87040BA
:10730000FFF782BFDC180020E2180020E4180020FC
:10731000505C004002300020B4180020944B73B53C
:107320001A68944990B24418934E65002A683568EB
:107330002B7A092B15D090B2410001F1804404F55D
:10734000C04422782A7063786B70A08800F0DAFB62
:1073500068802089356800F0D5FBA880A089316855
:10736000C880854D01242B68DA881C725C78002A5D
:1073700064D1187810F07F0238D1092C02D1FFF7C0
:107380002FFE45E0052C0FD193F90320002A01DAE6
:1073900008214FE099780029FAD198880028F7D180
:1073A0009B7A002B38D0F3E7032C10D1D878012832
:1073B00007D0724A204611684B699847032829D1A3
:1073C00037E09B88002BF4D1FFF7FEFE20E0012C74
:1073D000EFD1D9780129ECD198880028E9D15B7ADE
:1073E00003F02002D1B20029E3D00AE0012A04D13F
:1073F0000B2CDED1FFF710FE0AE0022AD9D1012CB6
:1074000002D1FFF72DFE03E0032CD2D1FFF796FE49
:1074100010B1CEE70028BBD15548594B026891B254
:10742000C818584B4100002230200A6018800621FD
:1074300000E00921504A10680172D3E0062C13D1F4
:107440001C7861067AD19A784C4B012A02D11C68CB
:10745000E36969E0022A02D11868036A64E0032A3A
:107460006CD119684B6A5FE0002C3ED15988002925
:1074700064D1586820F47F42B2F5003F5ED11C7899
:1074800014F07F0004D19888002800F0AE8055E009
:1074900001280CD1394A58791468A269904700280C
:1074A0004CD12B68997A002940F09F8046E0022851
:1074B00044D15B7903F00F014FEA810202F180446D
:1074C00004F5B840304C0268207813F0800F14BFE8
:1074D00002F0300202F4405281422FD213F0700FBA
:1074E0002CD1002A40F0818028E0082C03D11978A3
:1074F0004A067CD022E00A2C20D1187800F07F01C7
:1075000001291BD19C7ACCB15988B9B95A6822F4A7
:107510007F40B0F5803F11D1184C587922689469AA
:10752000A047002865D009E043B113480024016852
:1075300020464C828B61984720460AE00F4A0E4C49
:10754000116823680A6958789047032801D1236895
:1075500006E0094B4FF6FF711B681A8A8A4201D177
:10756000092103E0022800D082B90821197239E00C
:10757000505C004004300020DC180020B4180020CB
:1075800002300020E41800200C01002093F90000D4
:10759000002821DAD98801910198824202D9019A02
:1075A0001A8211E08A420FD21349086890F82C1011
:1075B0008A4201D2002105E092FBF1F001FB10228A
:1075C00012B901210D4801700B49086890F82C2070
:1075D0009A82FFF7B3FC05E003221A72084B4FF4BE
:1075E00040511980FFF710FE7CBD064B9DE7064B0E
:1075F0009BE7064B99E700BFB41800204018002015
:10760000E2180020A16E0008596E00087D6E000887
:1076100070B50D4B1C780023A34210D203F18052A9
:1076200002F5B855A90043F400420E6842F0800507
:1076300040F60F7232402A430A600133ECE70349F7
:1076400040F08000086070BD0C0100204C5C0040E0
:1076500010B514490B680C461A7A022A01D0042A84
:1076600004D1FFF76BFC2168087A13E0062A10D1D9
:107670005878052809D11978480606D1D878FFF737
:10768000C7FF094B1A68106A804708490B689A6857
:1076900090470820034B1A681072BDE81040FFF7AE
:1076A000B3BD00BFDC180020D8180020B41800209B
:1076B0007047000008B5074A074B02201360187294
:1076C0000649074B0748084A0B6010601B6898473B
:1076D00008BD00BFDC180020BC180020B418002032
:1076E000B8000020E8000020D818002037B500239B
:1076F000ADF806305848594B026891B2120419800F
:1077000040F1A8801888564900F00F020A70002A3C
:107710006ED1544C2568AAB2534D2A802988534A09
:1077200001F03000108029884BF6BF7201F4405000
:10773000288021680A4082F4005080F0200141F442
:10774000004242F0800020601B8803F010018AB2E2
:107750003AB9226848F60F7010402060FFF778FFB2
:107760001DE0206883B2ADF80630BDF8061001F4C4
:10777000006290B238B1216840F68F730B402360ED
:10778000FFF7CCFD0BE0BDF8063019B20029B1DAE5
:10779000226840F68F7010402060FFF755FD216889
:1077A0002A884BF6BF7302F480500B4081B209B1B6
:1077B00083F480532C4A108800F400518AB20AB135
:1077C00083F400532948018801F0100291B209B1F5
:1077D00083F01003008800F0200291B209B183F019
:1077E000200343F400401F4A40F08001116031E063
:1077F000930003F1804000F5B843196888B2ADF8F2
:107800000600BDF8061008B2002809DA186840F62C
:107810008F7101401960164B013A53F822008047DE
:10782000BDF8061001F0800293B2002B3FF462AF66
:107830000B480278910001F1804303F5B8410868D4
:1078400048F60F7303400B600A49013A51F82200D1
:1078500080474FE73EBD00BF445C00403018002029
:10786000B8180020005C0040E2180020E418002056
:10787000480000206400002030B501F1005101F5FE
:10788000405301325900521000230230934209D074
:1078900010F8015C10F8024C44EA052421F823405A
:1078A0000133F2E730BD01F1005110B5013201F5AD
:1078B0004054521064000023934205D054F8231022
:1078C00020F813100133F7E710BD00004FF6F873EE
:1078D000014A034013607047505C0040800000F193
:1078E000804202F5B842106848F68F1303401943EE
:1078F00011607047800000F1804202F5B8421068C4
:1079000048F6BF73034001F0100080B208B99BB283
:1079100001E083F0100301F0200188B208B183F088
:10792000200343F4004141F0800010607047800064
:1079300000F1804202F5B84210684BF68F730340A5
:1079400001F4805080B208B99BB201E083F4805307
:1079500001F4005188B208B183F4005343F40041AC
:1079600041F0800010607047800000F1804202F515
:10797000B840016848F6BF730B4083F0300242F410
:10798000004141F0800303607047800000F18042B5
:1079900002F5B84001684BF68F730B4083F44052F8
:1079A00042F4004141F0800303607047800000F121
:1079B000804202F5B840016840F60F630B4043F483
:1079C000004242F0800101607047800000F1804376
:1079D00003F5B8400268510408D5016840F60F73FA
:1079E0000B4043F4404242F0800101607047800048
:1079F00000F1804303F5B8431A68500608D51968AA
:107A000040F60F70084040F4004242F0C001196097
:107A100070470000064B49081A6893B203EBC00098
:107A200000F1005202F5405358004A0002607047CE
:107A3000505C0040054B49081A6893B2044A03EBB6
:107A4000C000831858004A0002607047505C004034
:107A500004300020054B19688AB202EBC00000F127
:107A6000005303F540514A0010887047505C0040B5
:107A7000044B1968044B8AB202EBC000C1184A00DB
:107A800010887047505C004004300020044B1A6896
:107A900093B2044A03EBC00083185800016070479A
:107AA000505C0040023000200C4B1A6893B20C4A24
:107AB00003EBC00083185A003E2908D94B09C906B8
:107AC00001D1581E83B2990241F4004104E04B08F1
:107AD000C80748BF0133990211607047505C0040ED
:107AE00006300020054B1968054B8AB202EBC00036
:107AF000C1184A0010688305980D7047505C00401B
:107B000006300020C3B2000A40EA0320704700009C
:107B1000044B00201860044A044B4FF43F4111808D
:107B200019607047445C0040E0180020405C004051
:107B300040F0BF60024B40F40031D960704700BF95
:107B400000ED00E0C37810B503B3164CE168CB43F9
:107B5000C3F302244178C4F1040201FA02F10F22B6
:107B600022FA04F28478037822400A43110103F1D7
:107B70006043CAB203F5614181F800230078012215
:107B800000F01F03410902FA03F007E00078012228
:107B900000F01F03410902FA03F02031024B43F8C1
:107BA000210010BD00ED00E000E100E021F06041A7
:107BB00021F07F02014B10439860704700ED00E018
:107BC000837910B5002B29D01A4B01681C68CA4371
:107BD00014401C605C6822405A60027902F18044C3
:107BE00004F5823214682143116002689C68D14315
:107BF0000C409C60DC68407921401028D96006D197
:107C0000986810439860D9680A43DA6010BD00F1A3
:107C1000804303F5823319680A4308E0017900685C
:107C200001F1804202F582331A6822EA00021A60EA
:107C300010BD00BF00040140014B5861704700BFF8
:107C400000040140064B1A68596910EA010304D088
:107C500010420CBF0020012070471846704700BF3B
:107C600000040140014B5861704700BF000401400F
:107C7000CB78F0B5DA0648BF8A78098803F00F059B
:107C800048BF154311F0FF0F1ED0046800220127E2
:107C900007FA02F707EA0106BE4211D197004FF03A
:107CA0000F0C0CFA07FC05FA07F724EA0C04282B42
:107CB00044EA070401D1466102E0482B08BF06618F
:107CC0000132082AE3D10460FF2920D94468002248
:107CD00002F10806012707FA06F707EA0106BE4285
:107CE00011D197004FF00F0C0CFA07FC05FA07F7BB
:107CF00024EA0C04282B44EA070401D1466102E07F
:107D0000482B08BF06610132082AE1D14460F0BD6A
:107D1000836819420CBF0020012070470161704741
:107D2000416170470028174B30B500F44014B4BFD0
:107D3000DB695B68B4F5401F82B207D1114C23F0B8
:107D40007063656825F0706565600FE0C40205D555
:107D5000C0F30344032505FA04F403E0440D2401B1
:107D600002FA04F423EA040343F0706321B1410DE5
:107D7000090102FA01F2134300280248B4BFC361AB
:107D8000436030BD0000014001F0030230B59200B5
:107D90000F2404FA02F400FA02F0074B89080231BA
:107DA00053F8215025EA040443F8214053F82140B8
:107DB000044343F8214030BD00000140014B1860EE
:107DC000704700BF00300040014B5860704700BF53
:107DD00000300040014B9860704700BF0030004009
:107DE000024B4AF6AA221A60704700BF00300040DA
:107DF000024B4CF6CC421A60704700BF0030004086
:107E0000014B1860704700BF20000E42074B1A68F4
:107E100042F004001860196841F002021A60044B35
:107E2000186940F00401196130BF704700700040CC
:107E300000ED00E0034B596808420CBF0020012010
:107E4000704700BF00700040024B1A6842EA800091
:107E50001860704700700040014B1860704700BF09
:107E6000D8004242064B002201281A701A7004D032
:107E7000042804D10520187001E01870704770477D
:107E800020100240024B1A6A10431862704700BF6C
:107E900000100240014B1860704700BF3C04424292
:107EA000044B5A6909B1104301E022EA000058610D
:107EB000704700BF00100240044B9A6909B110439B
:107EC00001E022EA00009861704700BF0010024004
:107ED000044BDA6909B1104301E022EA0000D861DD
:107EE000704700BF001002404309012B074A01D12F
:107EF000136803E0022B0CBF136A536A00F01F00E3
:107F000023FA00F101F00100704700BF00100240A9
:107F1000024B5A6A42F0807058627047001002406B
:107F2000044B1A8892B209B1104301E022EA000022
:107F30001880704700280040034B9A8890B240F0A8
:107F400010019980704700BF00280040034A9388C1
:107F500023F0100001040B0C9380704700280040B0
:107F600010B50446FFF7E8FF044BC4F30342A4B284
:107F70001A819C81BDE81040FFF7E8BF002800404F
:107F8000034B988800F020018AB2002AF8D070478D
:107F900000280040074A938823F0080001040B0CD6
:107FA0009380044A908800F008018BB2002BF8D02F
:107FB000704700BF00280040074B9A881B8891B289
:107FC00010EA030206D0084010F0FF0F0CBF00209B
:107FD000012070471046704700280040034B9A88E4
:107FE00091B221EA00009880704700BF002800404D
:107FF0000B8810B54C88028823438C8802F44152C8
:108000002343CC8823430C8923434C8923438C8905
:108010002343CC89098A23431A4393B20380828B7A
:1080200022F400631A04130C8383018210BD0388B9
:1080300019B199B241F0400303E023F040010A0472
:10804000130C0380704783889BB20AB1194301E087
:1080500023EA01018180704781817047808980B265
:108060007047038919420CBF0020012070470000AF
:10807000224A038890429BB212D002F500629042DD
:108080000ED0B0F1804F0BD0A2F59832904207D0BD
:1080900002F58062904203D002F58062904203D1E3
:1080A0004A8823F070031343154A904208D002F522
:1080B0008062904204D023F44073CA889BB2134379
:1080C00003808B880A8883850C4B028598420FD0E9
:1080D00003F5006290420BD002F54063984207D04E
:1080E00003F58062904203D002F58063984201D18B
:1080F000097A018601228282704700BF002C01406C
:1081000000100040038C70B523F001021404250C0C
:108110000584068C8388028B9CB222F073052B04A5
:108120000D881A0C26F0020633042A434E880D8966
:108130001B0C3543ADB22B43134DA8420FD005F5B0
:108140000065A8420BD005F54065A84207D005F5AB
:108150008065A84203D005F58065A8420ED123F0C2
:1081600008064B898D881E4326F004032B43CE89D5
:108170008D8924F440743543ADB22C43C988848082
:1081800002838186038470BD002C0140038C30B5CE
:1081900023F010021404250C0584038C8288048BC0
:1081A00023F0200324F4E6452C040D88240C44EA33
:1081B00005241D042B0C0D8992B243EA05134D884A
:1081C000A4B243EA0513124D9BB2A84203D005F5B1
:1081D0000065A84215D14D8923F080039BB243EA84
:1081E00005134FF6BF751D408B8822F4406245EAA7
:1081F0000315ABB28D8942EA8502CD8942EA850238
:1082000092B2C988828004830187038430BD00BF95
:10821000002C0140038C30B523F480721404250C2B
:108220000584038C8288848B23F4007324F0730507
:108230002C040D88240C2C431D042B0C0D8992B2A8
:1082400043EA05234D8843EA0523124D9BB2A84219
:1082500003D005F50065A84215D14D8923F40063CC
:108260009BB243EA05234FF6FF351D408B8822F46D
:10827000405245EA0325ABB28D8942EA0512CD8909
:1082800042EA051292B2C98882808483818703847E
:1082900030BD00BF002C0140038C30B523F4805268
:1082A0001404250C0584038C8288858B94B225F4F4
:1082B000E64215042A0C0D8823F4005342EA0522F5
:1082C0001D042B0C0D8992B243EA05334D8843EA15
:1082D00005330A4D9BB2A84203D005F50065A842BC
:1082E00005D18D8924F4804444EA8514A4B2C98858
:1082F00084808283A0F84010038430BD002C0140AC
:1083000000214FF6FF7383800180C180418001729C
:1083100070470023038043808380C38003814381AF
:108320008381C3817047038819B199B241F0010379
:1083300003E023F001010A04130C03807047B0F836
:10834000443029B16FEA43436FEA53418AB201E0F6
:1083500059044A0CA0F84420704783899BB20AB1A3
:10836000194301E023EA010181817047038819B1B3
:1083700099B241F0800303E023F080010A04130C5A
:1083800003807047038B23F0080213041A0C114377
:1083900001837047038B23F4006213041A0C42EA32
:1083A00001218BB203837047838B23F008021304EF
:1083B0001A0C114381837047838B23F400621304EA
:1083C0001A0C42EA01218BB283837047038A8289A7
:1083D00011EA030092B203D011420CBF0020012029
:1083E0007047C9438AB202827047C905CA0D8280AC
:1083F00070478088C105C80D7047038819420CBFBB
:10840000002001207047000008B5064B00221860CC
:10841000054906489A601961DA80DA609A80036A31
:10842000984708BDE8180020FC1C002018220020F6
:1084300008B5044B1A690AB10020186102494B6A59
:10844000984708BDE81800201822002062B670473F
:1084500008B572B600F05CFE034B022218699A6000
:1084600019680530884708BDE818002070B5064631
:10847000002014460D4600F03BFE012EA4B207D1A9
:1084800030462946224600F0BBFD0020124907E095
:10849000124B01201969224600F0B2FD0020294646
:1084A000224600F0ADFD0E480221012203F0D3F96F
:1084B000012000F01DFE0A4803F0D5F90028FAD18A
:1084C000084803F0D0F90028FAD107488021FFF7C7
:1084D000C8FD0028F9D170BD10010020E818002067
:1084E00058000240440002400038004003460A465B
:1084F00001201946FFF7BABF70B5064600201446A2
:108500000D4600F0F5FD012EA4B207D130462946F4
:10851000224600F075FD0020104907E0104B0120B5
:108520001969224600F06CFD00202946224600F021
:1085300067FD012000F0DCFD0A4803F094F90028F3
:10854000FAD1094803F08FF90028FAD107488021B1
:10855000FFF787FD0028F9D170BD00BF1001002092
:10856000E818002058000240440002400038004053
:1085700003460A4600201946FFF7BEBF38B5044639
:108580000D4600F0E1FE002021460422FFF7B4FF73
:108590000020211D2A1FFFF7AFFF034B02229A6024
:1085A00000F0B6FD002038BDE8180020F8B501F055
:1085B0000106044686F001000D18012300262370F1
:1085C000C5F307221B4BE67026716270A57005315A
:1085D0009D68081886B215B99A68012AFCD1996875
:1085E000144D012907D120463146FFF7C7FFA8687F
:1085F0000228FCD11CE0AF68022FFCD10E4880217C
:10860000FFF72FFD0028F9D10C4DE86980472F4670
:108610000028F9D0074D0323AB60EC60AE8000F07A
:1086200093FEFA6990470028FBD0A9680229FCD183
:108630000020F8BDE8180020003800401822002073
:1086400070B5184E35696B79022B08D0042B25D1F3
:10865000287A441E14F0010F18BF044614E0681D68
:10866000032101F077FAB0F5806F044608DB05F1CD
:108670000A004FF480610724FFF738FFB4600EE072
:10868000C30701D4441C00E024B105F10A00A1B2E3
:10869000FFF72CFF034908228A6000E000242046EF
:1086A00070BD00BFE8180020024B012019690A22A2
:1086B000FFF7DCBEE818002008B5FFF7C1FF18B9C6
:1086C000BDE80840FFF7C4BE08BD000070B5364CD9
:1086D0004FF40030266903F0C9F805464FF4005006
:1086E00003F0C4F8A368062B0BD1002D5BD0002843
:1086F00059D04FF4083003F0C7F8BDE87040FFF7D9
:10870000DBBFA16807291BD100284CD04FF40830EB
:1087100003F0BAF80321701D01F01CFAA0F5806483
:10872000A1B2214CCA0758BFA0F2FF31206958BF3F
:1087300089B200F20A40FFF7D9FE0823A36070BD9A
:10874000A268082A09D100282DD04FF4083003F080
:108750009BF8BDE87040FFF77BBEA068052811D1EB
:10876000002D20D011488021FFF77BFC0028F9D193
:108770004FF4083003F088F800F0CAFC0A4A0221DE
:10878000916070BDA368042B0DD165B1A088E2682B
:108790000521A0F58063A16002F5806099B2BDE873
:1087A0007040FFF7E5BE70BDE818002000380040BB
:1087B00008B5174BD8698047002827D1154B9A6810
:1087C00012B90120986008BD9968022907D10622D4
:1087D0009A6000F0B9FDBDE80840FFF765BF9A68F0
:1087E000032A13D19A88B2F5806F06D805219960C3
:1087F000D968BDE80840FFF739BE04209860D86802
:108800004FF48061BDE80840FFF7B2BE08BD00BF6D
:1088100018220020E8180020BFF34F8F054A064BAE
:10882000D16801F4E06040EA0301D160BFF34F8FEB
:10883000FEE700BF00ED00E00400FA054FF44070D1
:10884000FFF776B9094B4FF47A701A68084BB2FB00
:10885000F0F14A1E5A60074AF021002082F82310E6
:1088600098600720186082F8231070476401002088
:1088700010E000E000ED00E0024B18601A68002AEA
:10888000FCD170471021002030B54FF4003085B086
:10889000FFF7E8F908204FF40033002501248DF894
:1088A0000D00684402938DF80C508DF80E40FFF7D0
:1088B00087F9032101A88DF804108DF805108DF8B3
:1088C00006508DF80740FFF73DF9042329220DEBF0
:1088D00003008DF804208DF805308DF806508DF8D2
:1088E0000740FFF72FF90220FFF7A4FA50B102204A
:1088F000FFF7AAFAFFF74EFB24204FF6FF7102F0B4
:10890000E3FE27E0242002F0EDFE4AF2A551884262
:1089100001D1FFF77BFA0120FFF7A4FA4120FFF70E
:10892000E3FA0028FAD04FF48070FFF7ABFA012089
:10893000FFF7B0FAFFF72EFBFFF722FB0320012120
:10894000FFF7EEFAFFF71CFB47F6FF70FFF708FB97
:10895000FFF716FB05B030BD10B5044645F2555083
:10896000FFF72CFA0620FFF72FFA42F2107084422C
:1089700028BF044628216143C1F30F20FFF72AFADC
:10898000FFF72EFABDE81040FFF732BA082812D8D8
:10899000012907D10A4B0B4A53F8201032F8100076
:1089A00008610AE049B9064B064A53F8201032F82C
:1089B0001000486101E0FF2300E0002358B2704737
:1089C00018010020B412010837B50E4D044605EB1E
:1089D000800318690121FFF76FFA35F814000A4B7C
:1089E0001021ADF804008DF80710032253F824007D
:1089F00001A98DF80620FFF73BF920460021FFF77B
:108A0000C5FF3EBDB41201081801002070B5012158
:108A100088B04FF40060FFF74FFA314B42F210700C
:108A20001C686326B4FBF0F14A1E2E4C01A895B2D7
:108A3000FFF766FC01A8FFF763FC01A9ADF804503D
:108A400020460025ADF80860ADF80A50ADF8065094
:108A5000FFF70EFB04A8FFF75CFC02206023012651
:108A6000ADF8180004A92046ADF81030ADF812603A
:108A7000ADF81650ADF81C50FFF744FB20462946D0
:108A8000FFF780FC204604A9FFF780FB204629461B
:108A9000FFF780FC204604A9FFF7BCFB20462946CF
:108AA000FFF782FC204604A9ADF81050ADF8126023
:108AB000ADF81650ADF81850FFF7EEFB20462946EA
:108AC000FFF77AFC20463146FFF750FC204631463E
:108AD000FFF729FC20463146FFF731FC08B070BD96
:108AE00064010020002C0140104930B58C8DC0F38A
:108AF0000743A2B2551C5D43FF22B5FBF2F40C4BB9
:108B0000A5B29D808C8DC0F30725A4B201346C43BF
:108B1000B4FBF2F4A4B2DC80898DC0B289B2013119
:108B20004843B0FBF2F291B2598030BD002C0140B5
:108B300044180020104930B58C8DC0F30743A2B211
:108B4000551C5D43FF22B5FBF2F40C4BA5B29D8191
:108B50008C8DC0F30725A4B201346C43B4FBF2F44E
:108B6000A4B2DC81898DC0B289B201314843B0FB27
:108B7000F2F291B2598130BD002C0140441800201E
:108B800037B50F4D044605EB8003186B012105EB4B
:108B90004405FFF791F9B5F84000ADF804000CB9B1
:108BA000102100E01821074B8DF8071003EB840417
:108BB0000322206A01A98DF80620FFF759F83EBD6F
:108BC000B41201081801002010B1E7281BD105E0FC
:108BD0000D4A4FF40051106A016170470B4B0C4A6B
:108BE000197C39B9988881B21187D88881B2918768
:108BF0005B8806E0988981B21187D88981B2918714
:108C00005B899BB2938670471801002044180020AE
:108C1000002C0140024B0022E7201A74FFF7D4BF5A
:108C20004418002038B1E7280BD1064B00221A87E0
:108C30009A879A8605E004484FF40053016A4B6115
:108C400070477047002C014018010020024B0122A0
:108C5000E7201A74FFF7E6BF4418002010B1E72898
:108C600027D106E0134B196AC86880F40052CA6025
:108C70007047114A114B117C61B9198F908841409E
:108C800088B21887998FD088414088B29887998E8A
:108C900052880BE0198F9089414088B21887998FCC
:108CA000D089414088B29887998E52894A4092B2C1
:108CB0009A8670471801002044180020002C0140BB
:108CC000E7287FD14049414B087C414A48BB89880D
:108CD00088B208B918700DE0118F88B208B9012068
:108CE00007E0118F928D88B291B24A1C904201D157
:108CF000FF201870344B3748D98889B269B1344A9B
:108D0000938F99B209B9012107E0938F928D99B29F
:108D100093B25A1C914201D1FF2101702A48438825
:108D200028E0898988B208B918700DE0118F88B2DF
:108D300008B9012007E0118F928D88B291B24A1CC8
:108D4000904201D1FF2018701F4B2248D98989B267
:108D500069B11F4A938F99B209B9012107E0938F36
:108D6000928D99B293B25A1C914201D1FF210170A8
:108D70001548438998B2184B68B1154A918E88B24C
:108D800008B9012007E0918E928D88B291B24A1CF9
:108D9000904201D1FF2018700D4B0C491A8F91F9A8
:108DA0000000821891B20B4A198792F90010988F2F
:108DB000081882B208499A8791F90020988E1018F5
:108DC00081B29986704700BF441800201C21002002
:108DD000002C01400C210020FC20002073B5104C19
:108DE0000E4604EB400494F84C10054694F84800F5
:108DF000FEF7CAFFB4F850402046FEF71DFF0948B1
:108E00000023451995F83010684600948DF8043019
:108E10008DF805108DF80660FEF7D2FE7CBD00BF10
:108E2000B412010818010020F7B5224E8700F3198B
:108E30000546586D0C4640F001000121FFF73CF853
:108E40001D4B06EB45065A1992F83210B6F85C0035
:108E500002AADF198DF8031022F8080D6946786B15
:108E6000FEF706FF012C24D11021002213481B27F6
:108E7000FFF773FA05238DF8047001A800278DF819
:108E800005308DF806708DF80740FEF75BFEB6F8EA
:108E9000601006208DF8050001A88DF804108DF8EB
:108EA00006708DF80740FEF74DFE28462146FFF775
:108EB00095FFFEBDB412010818010020002C0140EE
:108EC00010B501214FF0C050FFF702F80120FEF766
:108ED00097FFFFF7B3FC01200146FEF7EDFF0024EA
:108EE000E0B20134FFF770FD082CF9D1FFF78EFDD9
:108EF0000020FFF745FE0120FFF742FE0220FFF7AA
:108F00003FFE0320FFF73CFE00200121BDE810409A
:108F1000FFF78ABF054A064B02EB800103EB4002D4
:108F2000486BB2F85C10FEF7F3BE00BF18010020DA
:108F3000B4120108024B03EB4000418A88B270472B
:108F400044180020024B002203EB4000428270478D
:108F50004418002030B5082087B00121FEF7ACFF8F
:108F6000254C4FF480400121FEF7B2FF18204FF44A
:108F7000005301258DF8030069462046ADF8003006
:108F80008DF80250FEF774FE4FF400412046ADF814
:108F900000106946FEF76CFE4FF480420423204621
:108FA0006946ADF800208DF80330FEF761FE002021
:108FB000ADF804004FF48271ADF80800ADF80A0076
:108FC000ADF81200A4F5544407204FF4007220239A
:108FD000ADF80610ADF8140001A92046ADF80E203A
:108FE000ADF81030ADF80C50FFF702F82188034BB4
:108FF0008AB21A8007B030BD000C01402021002049
:1090000070B5044601208CB00E4601461546FEF7A9
:1090100047FF124B002080224FF44051012C019356
:109020000296059006920790089009900A910B907D
:1090300006D103900A48049502F06AFB084807E04D
:109040004CB9102307480393049502F061FB0548CF
:1090500001A902F0D5FB0CB070BD00BF0C38004078
:10906000440002405800024073B50F23012400253C
:1090700001A88DF804308DF805508DF80650174E74
:109080008DF80740FEF75EFDFFF764FF20462A4695
:109090001349FFF7B5FF28462A461249124DFFF73C
:1090A000AFFF30460221224602F0D5FB284621467A
:1090B0002246FEF7C8FF224628460221FEF7C3FFDC
:1090C00028462146FEF7B3FF2146084802F0B8FBC8
:1090D0003046214602F0B4FB7CBD00BF5800024080
:1090E000FC1C0020FC180020003800404400024016
:1090F00010B504462146044802F0A2FB034821466D
:10910000BDE8104002F09CBB440002405800024001
:1091100002484FF48051FEF701BE00BF000C014031
:1091200008B54FF400610248FEF7F2FD08BD00BF2C
:10913000000C014030B5092085B00121FEF7BCFECE
:109140004FF400644823694614488DF80330ADF8A5
:109150000040FEF78DFD0B210120FEF715FE204695
:10916000FEF76AFD0C200294002501248DF80D0005
:1091700002A88DF80C508DF80E40FEF721FD282135
:1091800001A88DF804108DF805408DF806508DF873
:109190000740FEF7D7FC05B030BD00BF000C014012
:1091A0001FB52823002401A88DF804308DF807404E
:1091B000FEF7C8FC4FF40060029002A88DF80E4044
:1091C000FEF7FEFC1FBD000020B105484FF4807182
:1091D000FEF7A4BD02484FF48071FEF7A1BD00BFA9
:1091E000000C014013B5082001210F4CFEF764FE6E
:1091F000032010214FF480538DF806008DF80710DE
:10920000204601A9ADF80430FEF732FDFFF780FFDC
:109210004FF48072204601A9ADF80420FEF728FD26
:109220000020FFF7D1FF1CBD000C014010B50B4C16
:10923000238823F0400001040A0C2280FFF768FF16
:10924000074B188881B2074841F040024FF4007183
:109250002280BDE81040FEF763BD00BF003800402B
:109260001E210020000C014002484FF40071FEF75F
:1092700055BD00BF000C014070B5082086B001212B
:10928000FEF71AFE2E4C01214FF48040FEF720FE1F
:1092900018204FF4005301258DF80300694620463D
:1092A000ADF800308DF80250FEF7E2FC4FF40041BB
:1092B000ADF8001020466946FEF7DAFC04264FF4AC
:1092C000804220466946ADF800208DF80360FEF725
:1092D000CFFC1020032369464FF400768DF803007D
:1092E00020468DF80230A4F55444ADF80060FEF736
:1092F000BFFCFFF7B9FF002107202023ADF80410C1
:109300004FF48272ADF80810ADF80A10ADF80C10E9
:10931000ADF81210ADF8140001A92046ADF80620F2
:10932000ADF81030ADF80E60FEF762FE2188054BF7
:109330008AB2204629461A80FEF779FE06B070BD33
:10934000000C01401E21002010B50B4C238823F097
:10935000400001040A0C2280FFF786FF074B1888A3
:1093600081B2074841F040024FF480512280BDE8AD
:109370001040FEF7D5BC00BF00380040202100207F
:10938000000C014007B508200121FEF795FD0320E0
:1093900014214FF480638DF806008DF80710034800
:1093A00001A9ADF80430FEF763FC0EBD000C0140CE
:1093B000002008B5FEF750FD4FF400000121BDE884
:1093C0000840FEF785BD0000014B03221A6070477C
:1093D00074180020044B05489A7A0AB1052100E070
:1093E00001210160704700BFBC18002074180020E4
:1093F00007B5022014238DF805000021012201A8E1
:109400008DF804308DF806108DF80720FEF79AFBD2
:109410000EBD000020B105484FF48061FEF780BC0E
:1094200002484FF48061FEF779BC00BF000C014098
:10943000094B987D70B10949094B0A8809489A87F8
:109440000188094AD98710880849A3F840000A888A
:10945000A3F84220704700BF44180020004C0008C9
:1094600018010020024C0008044C0008064C0008BB
:1094700010B5194B987D00282DD002F00FFA34203A
:1094800002F020FA154802F065FA042822D1144CA3
:109490001248A18F02F042FA04281AD11148E18F34
:1094A00002F03CFA042813D10F48B4F8401002F03F
:1094B00035FA04280BD10D48B4F8421002F02EFA08
:1094C000042803D1BDE8104002F0F4B9FEE7FEE73E
:1094D000FEE7FEE7FEE710BD44180020004C000840
:1094E00018010020024C0008044C0008064C00083B
:1094F00038B505464FF0FF10FFF7F6FAE720FFF703
:1095000063FB0C4B0024A3F84240FFF7B1FF0A486D
:1095100020228562C2610462074C216AE369994294
:1095200007D205EB013000F0F2F9206A421C2262FA
:10953000F2E738BD18010020441800202DE9F04161
:1095400006460F464FEA91080024444516D056F8C7
:1095500024201748174D0270C2F30721C2F30743B6
:10956000EA62120E4170C270A96A0422837000F090
:1095700065F9A86A0134011DA962E6E7BB0711D0AD
:1095800056F824300A480B4AC3F307214170C3F34D
:109590000741D362037081701B0E916A0422C3706D
:1095A00000F04CF9E720BDE8F041FFF757BB00BFE2
:1095B000182100204418002008B5074B0524A3F803
:1095C0004040FFF755FF2820214602F07DF800209B
:1095D000FFF720FFFFF720F9180100204FF480511A
:1095E0004FF4937200F07DB84FF400514FF41972AC
:1095F00000F077B8034BB3F84200421E514251EBE2
:109600000200704718010020024B0022A3F84220FC
:10961000FFF72EBF1801002070B50E46054602F078
:1096200071F8B3082C461A46013A0434511C11490A
:1096300005D054F8040C90FAA0F00860F4E705EBAC
:109640008303086890FAA0F106F003069E19B3425E
:109650000ED013F8014B0822614011F0010F4FEAC0
:10966000510416BF044921466140013AF5D1EEE7A5
:10967000C84370BD003002402083B8ED10B50446E9
:109680000A480221FEF7EDFC0028F9D007482146E0
:10969000FEF7E2FC05480121FEF7E3FC0028F9D0C3
:1096A0000248FEF7DBFCC0B210BD00BF003800402E
:1096B00070B5FFF7BBFD9F20FFF7E0FFFF20FFF72E
:1096C000DDFF0446FF20FFF7D9FF0546FF20FFF727
:1096D000D5FF2D020646FFF7C7FD45EA044030439B
:1096E00070BD70B50C4615460646FFF79FFD03207A
:1096F000FFF7C4FFC4F30740FFF7C0FFC4F3072020
:10970000FFF7BCFFE0B2FFF7B9FF3DB1FF20FFF765
:10971000B5FF013D06F8010BADB2F6E7BDE87040BC
:10972000FFF7A2BD08B5FFF781FD0620FFF7A6FFF2
:10973000BDE80840FFF798BD08B5FFF777FD0420A6
:10974000FFF79CFFBDE80840FFF78EBD08B5FFF7A7
:1097500093FDFFF7F1FFFFF7ABFF104B984202D0EC
:109760004C3B984219D1FFF761FD8020FFF786FF3F
:10977000FFF77AFDFFF75AFD5020FFF77FFFFFF755
:1097800073FDFFF753FD0120FFF778FF0020FFF77F
:1097900075FFBDE80840FFF767BD08BD8D25BF0018
:1097A00008B5FFF743FD0520FFF768FFFF20FFF72F
:1097B00065FFC307FAD4BDE80840FFF755BD70B593
:1097C0000D4616460446FFF7ADFFFFF72FFDAD200F
:1097D000FFF754FFC5F30740FFF750FFC5F307201D
:1097E000FFF74CFFE8B2FFF749FF2078FFF746FF8D
:1097F0006078FFF743FFFFF737FDFFF7D1FFA51CA8
:109800002C4602342B1BF01881B289B1FFF70EFDF4
:10981000AD20FFF733FF14F8020CFFF72FFF14F809
:10982000010CFFF72BFFFFF71FFDFFF7B9FFE8E77C
:10983000FFF71AFDBDE87040FFF77EBF2DE9F84F36
:1098400011F0FF0906460D4617464FEA12381DD1A2
:10985000B8F1000F03D1304629463A4651E004469C
:109860005FFA89F2A81B904504EB000109D020465D
:109870004FF48052FFF7A3FF04F5805409F101096A
:10988000EEE74FEA08317018491939E0C9F10004D0
:10989000E4B2B8F1000F0DD1D2B2A242DBD902EB93
:1098A00009035FFA83F92246FFF789FF301961192E
:1098B0004A4626E0171B2246FFF781FFBFB24FEA58
:1098C0001739651934195FFA89FB5FFA87FAA046E0
:1098D0000026F3B2291B9B45414408D040464FF473
:1098E0008052FFF76CFF08F580580136F1E74FEA28
:1098F000093904EB090009EB0501BAF1000F04D0A6
:10990000FAB2BDE8F84FFFF75ABFBDE8F88F10B5BF
:109910000446FFF707FFFFF789FC2020FFF7AEFEA4
:10992000C4F30740FFF7AAFEC4F30720FFF7A6FE23
:10993000E0B2FFF7A3FEFFF797FCBDE81040FFF78A
:109940002FBF00003A4B82B01A6842F00100186045
:109950005968384A0A405A60186820F0847121F426
:1099600080321A60186820F4802119605A684FF418
:109970001F0122F4FE0000225860996000920192BB
:10998000186840F480311960294B1A6802F40030DD
:10999000019000994A1C0092019818B90099B1F5FC
:1099A000A06FF1D11B6813F4003218BF012201929D
:1099B0000198012805D0204B4FF000629A6002B058
:1099C00070471E490B6843F010020A60086820F0D7
:1099D00003030B600A68A1F5805342F0020008609F
:1099E000596859605A685A60586840F480615960F3
:1099F0005A6822F47C105860596841F4E8125A60A1
:109A0000186840F0807119601868094A8101FBD517
:109A1000536823F003015160506840F00203536023
:109A2000034A516801F00C000828F9D1C3E700BFD0
:109A3000001002400000FFF800ED00E000200240AE
:109A400008B50120FFF7E6FC064B0749012200207C
:109A50001A601860086005494FF4E0520A801A60E5
:109A600008BD00BF405C0040445C0040E01800209E
:109A7000064B1A6890B240F0080119601A6890B25B
:109A800040F004011960FFF79FBC00BF405C00403C
:109A900010B5064C4FF6FB73226813402360FFF7A6
:109AA00099FC4FF43F40206010BD00BF405C004077
:109AB0001F4B072810B518BF18701A781C4C052AC0
:109AC00033D8DFE802F003070C101823FFF7E0FF9C
:109AD000062202E0FFF7DCFF0422227010BD022103
:109AE0005970032022E059784A1ED0B258705B7832
:109AF000EBB9042017E00F4B186881B241F0100257
:109B00001A600A2005232370607010BD5878411E2A
:109B1000CAB25A705B7853B906484FF6EF720168C3
:109B20000A4002600620024B00E00620187010BDBB
:109B300022210020405C004001700B0A0A0C090E33
:109B400043708270C170043070470170090A41701F
:109B50000230704743185A78405C00EB022188B20B
:109B6000704710B543189A78DC78415C120402EB18
:109B700004625878521802EB002010BD73B5447986
:109B80000023022C01930FD0032C19D0012C2BD1D0
:109B9000164D28692E4620B1296901A8884702463A
:109BA000B8B9B16801201BE0104DE8682E4620B11D
:109BB000E96801A88847024658B9B16802200FE059
:109BC0000A4D6A692E464AB16B6901A89847024658
:109BD00020B1A9682046BDF8043003E0B168032035
:109BE0000022134600F05EFB7CBD00BF182200205F
:109BF000072810B50CD801290AD8012404FA00F46A
:109C000001FA00F0034B1A6822EA040202431A60C8
:109C100010BD00BF7C010020F0B5012187B00546D2
:109C2000FFF798FF00F48043044698B250B3B4F5B0
:109C3000824F27D128460521FFF78CFF00260746D3
:109C400007353446BE4208D028460221FFF782FF7E
:109C5000013624180435B6B2F4E7744B188E211877
:109C60008AB21A86D86B2418DC63D96B9A6B91423E
:109C700040F0CE8093F84000002800F0C9809B6936
:109C8000992033E024F4FF4121F07F0290B20028B4
:109C900000F09B8048F2100294422AD00CD8B4F510
:109CA000004F40F2C08048F202039C4217D9991C31
:109CB0008C4240F0B88012E048F2800084420ED01E
:109CC00005D848F24002944240F0AD8051E0B4F52E
:109CD000024F04D0B4F5084F40F0A5806CE0534922
:109CE0008869002800F094808B69204600210A468C
:109CF00069E00023EA1851790DF803100133042BB1
:109D0000F8D1687A2B7BAA7AE97A8DF804008DF86D
:109D100007308DF805208DF8061005F10D000023A1
:109D200006AAD218C15C0133042B02F8101CF7D12B
:109D300005F11100002306AAD218C15C0133042BDF
:109D400002F80C1CF7D105F11500002300AAD21867
:109D5000C15C0133042B1174F8D1344928798A6924
:109D60008DF81400002A53D08B69204669461522CD
:109D700029E0053500212846FFF7F3FE0421009075
:109D80002846FFF7EEFE082101902846FFF7E9FE7E
:109D90000C2102902846FFF7E4FE1021039028468C
:109DA000FFF7DFFE214B04909969002930D09B69B1
:109DB00020466946142206E01C48826942B3836942
:109DC000691D20460122984722E041F203039C428C
:109DD00005D00C339C4202D0591E8C421AD16C1D06
:109DE00004212046FFF7BDFE39301CD12D790F48E4
:109DF0000021C5622046FFF7B4FE04210546204637
:109E0000FFF7AFFE393003D128460121FFF7F0FEFE
:109E1000012009E0054A138899B28C4204D0B4F5B8
:109E2000805FF5D100E0002007B0F0BD18220020CF
:109E300038B50A4C638898B208B9002038BD60680C
:109E400001780429F9D1FFF7E7FE01280546F4D18E
:109E500000226280FEF7FAFA284638BD1822002058
:109E60002DE9F0470446884691460025BC4B5A88A8
:109E700090B20028FAD05E683178042940F07281EF
:109E800030460121FFF766FE05463046FFF7C4FE67
:109E9000002840F05C8141F20703771D9D4253D8B2
:109EA0005A1E954280F0AC8040F20220854200F0BC
:109EB000A78014D80C2D09D8082D80F0A180002D82
:109EC00000F04581062D40F29B80DDE00D2D00F075
:109ED000948040F20127BD4240F039818DE041F28B
:109EE0000202954218D8B5F5805F00F28980B5F579
:109EF000017F40F2828040F207218D4240F02781AD
:109F00003379002104F8013B3846FFF72AFE014669
:109F10002046FFF711FE1AE141F20400854200F0ED
:109F2000898040F2A08038460021FFF71AFE042104
:109F300020603846FFF715FE6060083406F10D0713
:109F4000224606F11D016EE041F21100854254D017
:109F50002CD841F20B02954252D01CD841F2090193
:109F60008D424DD000F28B8000213846FFF7F9FD7D
:109F7000042120603846FFF7F4FD08216060384670
:109F8000FFF7EFFD0C21A0603846FFF7EAFD04F172
:109F90000C0AE060DAE041F20F00854263D035D868
:109FA00041F20D02954240F0D28043E042F20601B8
:109FB0008D4222D008D8B5F5005F40F2C88042F249
:109FC00004039D4219D983E042F208039D42C0F088
:109FD000BE80581C854210D944F20B02954240F0D5
:109FE000B6807179DFF878A13846AAF830100121DF
:109FF000FFF7B0FDAAF83200A9E037792770A6E094
:10A0000038460021FFF7ADFD2060A0E00021384672
:10A01000FFF7A7FDA2464AF8040B04213846FFF7D4
:10A02000A0FD606092E057F8043B8F4242F8043B89
:10A03000F9D18CE000213846FFF793FD0421206020
:10A040003846FFF78EFD082160603846FFF789FD2E
:10A0500004F1080AA060E46814F1390376D1012103
:10A06000FFF7C6FD72E000213846FFF77AFD0421B4
:10A0700020603846FFF775FD6060083467E033798B
:10A0800023713F68276062E038460021FFF769FDD1
:10A09000042120603846FFF764FD082160603846DF
:10A0A000FFF758FD0A21A0603846FFF753FDC4F8BA
:10A0B0000A000C3406F11107224606F1350157F863
:10A0C000043B8F4242F8043BF9D1388810803EE0CF
:10A0D0000022B7187879A0540132042AF9D106F188
:10A0E00009070023F95CE0180133042B0171F9D151
:10A0F00006F10D070020395C221801300428117286
:10A10000F9D106F111070023F95CE2180133042BA1
:10A110001173F9D106F115000022875CA1180132F4
:10A12000042A0F74F9D106F119000023C75CE11865
:10A130000133062B0F75F9D106F11F000021475C92
:10A140006218013120299776F9D100E05446044B7A
:10A15000188882B2954225D10021198022E000BFE3
:10A160001822002030460321B778FFF7F3FC82461F
:10A17000B8F1000F0CD00421701DFFF7F2FC03466C
:10A18000C9F8000006F115014046DAB206F024FADB
:10A190007A1DB1182046C7EB0A0206F01DFA0F49D6
:10A1A0000020C8860D4F00237B80FEF74FF93078E2
:10A1B000042805D1B5F5805F02D13046FFF7DEFCFB
:10A1C0003A8891B200297FF451AE044BD88E80B208
:10A1D00000287FF44BAEBDE8F08700BF18220020B6
:10A1E00007284FF0010308D803FA00F004490A6871
:10A1F00010420CBF0020012070471846704700BF76
:10A200007C010020034B1880084600210A46FFF716
:10A2100027BE00BF1822002010B5034B0124DC86A6
:10A22000BDE81040FFF71CBE1822002038B50346D9
:10A23000154601224A710C46881D1946FFF785FC18
:10A24000291D05702046FEF7B1F9002038BD38B54C
:10A25000BDF814500C469B18A071E81885B2022175
:10A260006171E271294604F10800FFF76EFC6A1D76
:10A27000204691B2FEF79AF9002038BD38B59B18F8
:10A280000C469DB202216171A071E271294604F170
:10A290000800FFF75AFC6A1D204691B2BDE838401D
:10A2A000FEF784B92DE9F0471D4605F1020A0323A4
:10A2B00001F107091FFA8AFA88714B710C4648466A
:10A2C00051461746FFF741FCB5F57A7F804613D813
:10A2D0002946FFF73AFC29464046FFF736FC394647
:10A2E00004F10B002A4606F077F9A91D204689B231
:10A2F000BDE8F047FEF75AB94FF47A76B5FBF6F1B0
:10A300000AEB410291B2FFF720FC31464046FFF7CD
:10A310001CFC394604F10B00324606F05DF9A5F548
:10A320007A75204640F2EE31ADB2BF19FEF73EF924
:10A33000B5F57A7F05D9A5F57A7085B24FF47A76AE
:10A3400001E02E460025A046394628F8056F48460C
:10A35000324606F041F9B31C404699B2BF19FEF7E8
:10A3600025F9002DE4D1BDE8F0870000F7B51A4CBF
:10A370001E46A468FF238DF807300025475D63194A
:10A380000135042D5F72F9D100200D5C23180130D6
:10A3900004285D73F9D10021505C63180131042950
:10A3A0005874F9D104F115000021FFF7C5FB002214
:10A3B000B35C83540132042AFAD12146142242F2BA
:10A3C0000100FFF733FF42F201000DF10701FFF733
:10A3D00019FF9DF90700FEBD182200202DE9F34169
:10A3E00006460C461E4831681546D0F808804A1EBD
:10A3F0001F46FF23122A8DF8073008F1090001D803
:10A400001423336021684A1E122A01D814232360C2
:10A4100029684A1E122A01D814232B6039684A1E63
:10A42000122A01D814233B603168FFF785FB2168AD
:10A43000FFF782FB2968FFF77FFB3968FFF77CFB9A
:10A440004146142242F20900FFF7F0FE42F20900F1
:10A450000DF10701FFF7D6FE9DF90700BDE8FC816D
:10A460001822002038B5074B42F2050405469968CA
:10A4700020460022FFF7DAFE20462946BDE8384094
:10A48000FFF7C0BE182200202DE9F341864614488C
:10A490000D46866871461F4602ACFF2306F109008F
:10A4A00004F8013D9046FFF747FB2946FFF744FBC0
:10A4B00040F201254146FFF73FFB0C22314628467A
:10A4C000FFF7B4FE28462146FFF79CFE00213846E0
:10A4D0000A46FFF7A1FE9DF80700BDE8FC8100BF1A
:10A4E000182200202DE9F341864616480C4686685E
:10A4F0007146984602AD4FF0FF3306F10A0045F869
:10A50000043D1746FFF718FB0C21FFF715FB21460A
:10A51000FFF712FB3946FFF70FFB4146224606F1D3
:10A520001A0006F059F8902031461022A3B2FFF726
:10A53000A5FE40F202202946FFF764FE0198BDE81F
:10A54000FC8100BF1822002037B50B4B40F20725D5
:10A550000446996800222846FFF768FE28466946A7
:10A56000FFF750FE9DF803009DF804102070617005
:10A570009DF800003EBD00BF1822002037B50D4AEF
:10A58000034695680C4605F109001946FFF7D4FA11
:10A59000214640F20324FFF7CFFA2946082220463D
:10A5A000FFF744FE20460DF10601FFF72BFEBDF834
:10A5B00006003EBD182200202DE9F0430023CA5CAE
:10A5C000C2540133102BFAD10022334B467B991829
:10A5D00091F8018004789F19F97A88EA0405847B50
:10A5E00085EA01081D194178EF7A90F80CC04F40B8
:10A5F000C17B80F810805D1895F80B9085786344D6
:10A6000089EA050593F80B90C378477489EA030338
:10A6100090F80490FFB288EA090890F805908574D4
:10A6200087EA090790F80690EDB285EA090590F8E7
:10A630000790C374DBB283EA090390F8089080F8AE
:10A6400014805FFA88F888EA090890F8099047753D
:10A65000FFB287EA090790F80A908575EDB285EA9E
:10A66000090590F80B90C375DBB283EA090388EA09
:10A670000C0C7E406C405940013280F818804776BF
:10A680008576C37680F81CC046778477C177103012
:10A690000A2A9AD1BDE8F0831813010810F0800F40
:10A6A0004FEA400018BF80F01B00C0B270470000A6
:10A6B0002DE9F04F037891F8A0A004468AEA030A36
:10A6C00080F800A091F8A1204078A77882EA0005E0
:10A6D000657091F8A260E07886EA0703A37091F8AC
:10A6E000A32097B0059582EA0005E57091F8A49043
:10A6F0002679069389EA060984F8049091F8A570F2
:10A700006379079587EA0302627191F8A600A5793B
:10A71000E37980EA0506A67191F8A7700C9287EAA2
:10A72000030B84F807B0227A91F8A880607A88EA4F
:10A73000020884F8088091F8A9700896474067726B
:10A7400091F8AA50A67AE07A85EA0603A37291F8F6
:10A75000AB20267B82EA0005E57291F8ACC0099334
:10A760008CEA060C84F80CC091F8ADE0637BA27B08
:10A770008EEA030E84F80DE00D9591F8AE50E07B63
:10A780005540A57391F8AF204B4B4240E2739A4479
:10A7900091F890009AF80B6199444640267091F820
:10A7A000940099F80BA198448AEA0006267191F862
:10A7B000980098F80B919C4489EA000626729CF850
:10A7C0000BA191F89C009E448AEA00062673DF19CB
:10A7D0009EF80B8197F80BC191F8910091F89D605C
:10A7E00088EA00098CEA060060730C9FDDF814A06B
:10A7F000DE1996F80B0191F89970DDF8208080EA57
:10A800000706667203EB0A0091F8956090F80B71E9
:10A8100084F8019087EA0600607103EB0800DDF818
:10A8200018E090F80B91099803EB0E0703EB000E6C
:10A830009EF80BC191F8920091F89A6097F80B710D
:10A840008CEA000A77405D1991F89E6084F802A0B6
:10A8500091F8960095F80B81A772079F88EA00058A
:10A8600089EA0606A673A571DE1996F80B0191F820
:10A870009F5003EB0B0791F89360454097F80B014D
:10A880009A1880EA06070D98E7701E1896F80B7163
:10A8900091F897004FF0090B87EA0006E67191F8EE
:10A8A0009B3092F80B71E57387EA0300E0720D4666
:10A8B000CDF840B002E000BF1813010894F80090F2
:10A8C000A77887EA0900FFF7E9FEFFF7E7FE94F8AB
:10A8D0000180E678824686EA0800FFF7DFFEFFF790
:10A8E000DDFE8AEA070380EA080227797040A6792C
:10A8F0008AEA09015FFA80F886EA07005FFA82FBBC
:10A900005FFA83FA5FFA81F903970296FFF7C6FEB2
:10A91000FFF7C4FEE6796779014686EA07000491ED
:10A92000FFF7BCFEFFF7BAFE039B049A94F808C039
:10A9300082EA0301CBB2029947404A40A17A7040B3
:10A94000C6B2059381EA0C00D3B20291CDF804C0DF
:10A9500006930796FFF7A2FEFFF7A0FE637AE67A5A
:10A96000024686EA030003930492FFF797FEFFF77F
:10A9700095FE049ADDF804C0039B82EA0C015FFA9D
:10A9800081FC80EA0301CBB2029909934A40D3B219
:10A99000CDF820C00A9394F80CC0A17B7040C6B2D9
:10A9A00081EA0C000291CDF804C00B96FFF776FE09
:10A9B000FFF774FE637BE67B024686EA030003939F
:10A9C0000492FFF76BFEFFF769FEDDF804C0049AFE
:10A9D000039B82EA0C015FFA81FC80EA0301CBB29F
:10A9E000029970404A40C6B288EA0A018BEA09001F
:10A9F0000D93D3B20E930291CDF830C00F9681EA39
:10AA00000006FFF74BFE89EA000286EA020C5FFAB5
:10AA10008CFC8AEA0B0084F800C0CDF804C0FFF774
:10AA20003DFE8BEA000386EA030B02995FFA8BFC7A
:10AA300084F801C00846CDF844C0FFF72FFE8AEA2B
:10AA4000000286EA020A5FFA8AFB88EA090084F8B3
:10AA500002B0CDF848B0FFF721FE88EA0000DDF82B
:10AA600018900599079A4640FFB2F6B282EA0908A3
:10AA700087EA0100E670139688EA0006FFF70EFEEB
:10AA8000059B584086EA0001CAB2484622717840C8
:10AA90001492FFF703FE474086EA0703D8B21590E9
:10AAA00060714046FFF7FAFD89EA0001059B86EADE
:10AAB00001020798D7B25840A7710697FFF7EEFD3D
:10AAC0000799089A48404640F6B20A9F0596E671F3
:10AAD00009980B9E50407E4086EA0007FFF7DEFD96
