:020000040800F2
:1050000000500020518D0008A9840008AB840008DE
:10501000AD840008AF840008B184000800000000DF
:10502000000000000000000000000000B384000841
:10503000B584000800000000B7840008B9840008A7
:10504000A18D0008A18D0008A18D0008D58600085B
:10505000A18D0008A18D00080D8500082D85000890
:105060004D85000881850008A1850008A18D0008F4
:10507000A18D0008A18D0008A18D000831870008CE
:10508000A18D0008A18D0008BD840008A18D000835
:1050900035870008A18D0008A18D0008C185000892
:1050A000A18D0008A18D0008A18D00088986000847
:1050B000A18D0008A18D0008A18D0008DD840008E5
:1050C000ED840008A18D0008A18D0008FD84000872
:1050D000A18D0008A18D0008CD840008A18D0008D5
:1050E00011860008F1860008A18D0008000000006C
:1050F00000000000000000000000000000000000B0
:0C51000000000000000000005FF808F153
:1051100081F0004102E000BF83F0004330B54FEA68
:1051200041044FEA430594EA050F08BF90EA020FD5
:105130001FBF54EA000C55EA020C7FEA645C7FEA68
:10514000655C00F0E2804FEA5454D4EB5555B8BF8B
:105150006D420CDD2C4480EA020281EA030382EAFC
:10516000000083EA010180EA020281EA0303362D8E
:1051700088BF30BD11F0004F4FEA01314FF4801C61
:105180004CEA113102D0404261EB410113F0004F73
:105190004FEA03334CEA133302D0524263EB43032A
:1051A00094EA050F00F0A780A4F10104D5F1200EC8
:1051B0000DDB02FA0EFC22FA05F2801841F1000123
:1051C00003FA0EF2801843FA05F359410EE0A5F1F7
:1051D00020050EF1200E012A03FA0EFC28BF4CF028
:1051E000020C43FA05F3C01851EBE37101F00045DE
:1051F00007D54FF0000EDCF1000C7EEB00006EEBEB
:105200000101B1F5801F1BD3B1F5001F0CD3490874
:105210005FEA30004FEA3C0C04F101044FEA4452CB
:1052200012F5800F80F09A80BCF1004F08BF5FEA52
:10523000500C50F1000041EB045141EA050130BD32
:105240005FEA4C0C404141EB010111F4801FA4F1D5
:105250000104E9D191F0000F04BF01460020B1FA2A
:1052600081F308BF2033A3F10B03B3F120020CDA62
:105270000C3208DD02F1140CC2F10C0201FA0CF040
:1052800021FA02F10CE002F11402D8BFC2F1200CA5
:1052900001FA02F120FA0CFCDCBF41EA0C0190405B
:1052A000E41AA2BF01EB0451294330BD6FEA0404A4
:1052B0001F3C1CDA0C340EDC04F11404C4F120028F
:1052C00020FA04F001FA02F340EA030021FA04F3A1
:1052D00045EA030130BDC4F10C04C4F1200220FAF8
:1052E00002F001FA04F340EA0300294630BD21FA36
:1052F00004F0294630BD94F0000F83F4801306BFFC
:1053000081F480110134013D4EE77FEA645C18BFEF
:105310007FEA655C29D094EA050F08BF90EA020F86
:1053200005D054EA000C04BF1946104630BD91EA7E
:10533000030F1EBF0021002030BD5FEA545C05D181
:105340004000494128BF41F0004130BD14F58004C0
:105350003CBF01F5801130BD01F0004545F0FE4134
:1053600041F470014FF0000030BD7FEA645C1ABF69
:10537000194610467FEA655C1CBF0B46024650EAA0
:10538000013406BF52EA033591EA030F41F40021CC
:1053900030BD00BF90F0000F04BF0021704730B552
:1053A0004FF4806404F132044FF000054FF0000127
:1053B00050E700BF90F0000F04BF0021704730B5E8
:1053C0004FF4806404F1320410F0004548BF4042BD
:1053D0004FF000013EE700BF42004FEAE2014FEA12
:1053E00031014FEA02701FBF12F07F4393F07F4FED
:1053F00081F06051704792F0000F14BF93F07F4F1F
:10540000704730B54FF4607401F0004521F0004161
:1054100020E700BF50EA010208BF704730B54FF0E7
:1054200000050AE050EA010208BF704730B511F0EC
:10543000004502D5404261EB41014FF4806404F124
:1054400032045FEA915C3FF4DCAE4FF003025FEAA6
:10545000DC0C18BF03325FEADC0C18BF033202EB2E
:10546000DC02C2F1200300FA03FC20FA02F001FA88
:1054700003FE40EA0E0021FA02F11444C1E600BF27
:1054800070B54FF0FF0C4CF4E06C1CEA11541DBFDA
:105490001CEA135594EA0C0F95EA0C0F00F0DEF8A5
:1054A0002C4481EA030621EA4C5123EA4C5350EA8A
:1054B000013518BF52EA033541F4801143F48013DB
:1054C00038D0A0FB02CE4FF00005E1FB02E506F06C
:1054D0000042E0FB03E54FF00006E1FB03569CF0C1
:1054E000000F18BF4EF0010EA4F1FF04B6F5007FC7
:1054F00064F5407404D25FEA4E0E6D4146EB060639
:1055000042EAC62141EA55514FEAC52040EA5E50C1
:105510004FEACE2EB4F1FD0C88BFBCF5E06F1ED86B
:10552000BEF1004F08BF5FEA500E50F1000041EBA2
:10553000045170BD06F0004646EA010140EA02004F
:1055400081EA0301B4EB5C04C2BFD4EB0C0541EA71
:10555000045170BD41F480114FF0000E013C00F386
:10556000AB8014F1360FDEBF002001F0004170BDAA
:10557000C4F10004203C35DA0C341BDC04F11404C3
:10558000C4F1200500FA05F320FA04F001FA05F24F
:1055900040EA020001F0004221F0004110EBD3701C
:1055A00021FA04F642EB06015EEA430E08BF20EA48
:1055B000D37070BDC4F10C04C4F1200500FA04F3EB
:1055C00020FA05F001FA04F240EA020001F000417D
:1055D00010EBD37041F100015EEA430E08BF20EAF0
:1055E000D37070BDC4F1200500FA05F24EEA020E38
:1055F00020FA04F301FA05F243EA020321FA04F067
:1056000001F0004121FA04F220EA020000EBD3701D
:105610005EEA430E08BF20EAD37070BD94F0000F1D
:105620000FD101F00046400041EB010111F4801F51
:1056300008BF013CF7D041EA060195F0000F18BF02
:10564000704703F00046520043EB030313F4801F3E
:1056500008BF013DF7D043EA0603704794EA0C0FF8
:105660000CEA135518BF95EA0C0F0CD050EA41060E
:1056700018BF52EA4306D1D181EA030101F000418B
:105680004FF0000070BD50EA410606BF10461946B3
:1056900052EA430619D094EA0C0F02D150EA0136BF
:1056A00013D195EA0C0F05D152EA03361CBF104600
:1056B00019460AD181EA030101F0004141F0FE419F
:1056C00041F470014FF0000070BD41F0FE4141F423
:1056D000780170BD70B54FF0FF0C4CF4E06C1CEA23
:1056E00011541DBF1CEA135594EA0C0F95EA0C0FD8
:1056F00000F0A7F8A4EB050481EA030E52EA033593
:105700004FEA013100F088804FEA03334FF08055B3
:1057100045EA131343EA12634FEA022245EA1115E0
:1057200045EA10654FEA00260EF000419D4208BF91
:10573000964244F1FD0404F5407402D25B084FEA3E
:105740003202B61A65EB03055B084FEA32024FF4EA
:1057500080104FF4002CB6EB020E75EB030E22BF47
:10576000B61A754640EA0C005B084FEA3202B6EB07
:10577000020E75EB030E22BFB61A754640EA5C00B6
:105780005B084FEA3202B6EB020E75EB030E22BF46
:10579000B61A754640EA9C005B084FEA3202B6EB47
:1057A000020E75EB030E22BFB61A754640EADC0006
:1057B00055EA060E18D04FEA051545EA16754FEA68
:1057C00006164FEAC30343EA52734FEAC2025FEA86
:1057D0001C1CC0D111F4801F0BD141EA00014FF015
:1057E00000004FF0004CB6E711F4801F04BF0143E6
:1057F0000020B4F1FD0C88BFBCF5E06F3FF6AFAE02
:10580000B5EB030C04BFB6EB020C5FEA500C50F191
:10581000000041EB045170BD0EF0004E4EEA113114
:1058200014EB5C04C2BFD4EB0C0541EA045170BD1B
:1058300041F480114FF0000E013C90E645EA060E5F
:105840008DE60CEA135594EA0C0F08BF95EA0C0F8D
:105850003FF43BAF94EA0C0F0AD150EA01347FF4D5
:1058600034AF95EA0C0F7FF425AF104619462CE7AC
:1058700095EA0C0F06D152EA03353FF4FDAE10460F
:10588000194622E750EA410618BF52EA43067FF460
:10589000C5AE50EA41047FF40DAF52EA43057FF4F0
:1058A000EBAE12E74FF0FF3C06E000BF4FF0010CFB
:1058B00002E000BF4FF0010C4DF804CD4FEA410C5F
:1058C0007FEA6C5C4FEA430C18BF7FEA6C5C1BD02C
:1058D00001B050EA410C0CBF52EA430C91EA030FAD
:1058E00002BF90EA020F0020704710F1000F91EA0A
:1058F000030F58BF994208BF90422CBFD8176FEAD8
:10590000E37040F0010070474FEA410C7FEA6C5CA5
:1059100002D150EA013C07D14FEA430C7FEA6C5CAC
:10592000D6D152EA033CD3D05DF8040B704700BFD8
:105930008446104662468C461946634600E000BF26
:1059400001B5FFF7B7FF002848BF10F1000F01BDF8
:105950004DF808EDFFF7F4FF0CBF012000205DF8C3
:1059600008FB00BF4DF808EDFFF7EAFF34BF012048
:1059700000205DF808FB00BF4DF808EDFFF7E0FFE1
:1059800094BF012000205DF808FB00BF4DF808ED32
:10599000FFF7CEFF94BF012000205DF808FB00BF99
:1059A0004DF808EDFFF7C4FF34BF012000205DF87B
:1059B00008FB00BF4FEA410212F5001215D211D5C3
:1059C0006FF47873B3EB625212D94FEAC12343F0FC
:1059D000004343EA505311F0004F23FA02F018BF7E
:1059E000404270474FF00000704750EA013005D147
:1059F00011F0004008BF6FF0004070474FF000000A
:105A0000704700BF4A0011D212F5001211D20DD515
:105A10006FF47873B3EB62520ED44FEAC12343F0B4
:105A2000004343EA505323FA02F070474FF000005E
:105A3000704750EA013002D14FF0FF3070474FF00D
:105A4000000070474FEA4102B2F1E04324BFB3F5D2
:105A5000001CDCF1FE5C0DD901F0004C4FEAC002E5
:105A60004CEA5070B2F1004F40EB830008BF20F0C9
:105A70000100704711F0804F21D113F13872BCBF83
:105A800001F00040704741F480114FEA5252C2F1D8
:105A90001802C2F1200C10FA0CF320FA02F018BF21
:105AA00040F001004FEAC1234FEAD32303FA0CFC74
:105AB00040EA0C0023FA02F34FEA4303CCE77FEA03
:105AC000625307D150EA01331EBF4FF0FE4040F44D
:105AD0004000704701F0004040F0FE4040F40000FC
:105AE000704700BF80F0004002E000BF81F000413D
:105AF00042001FBF5FEA410392EA030F7FEA226C74
:105B00007FEA236C6AD04FEA1262D2EB1363C1BF03
:105B1000D218414048404140B8BF5B42192B88BF72
:105B2000704710F0004F40F4000020F07F4018BF95
:105B3000404211F0004F41F4000121F07F4118BFB5
:105B4000494292EA030F3FD0A2F1010241FA03FC5D
:105B500010EB0C00C3F1200301FA03F100F0004345
:105B600002D5494260EB4000B0F5000F13D3B0F10D
:105B7000807F06D340084FEA310102F10102FE2A7C
:105B800051D2B1F1004F40EBC25008BF20F00100EC
:105B900040EA03007047490040EB000010F4000F9A
:105BA000A2F10102EDD1B0FA80FCACF1080CB2EB2D
:105BB0000C0200FA0CF0AABF00EBC250524218438C
:105BC000BCBFD0401843704792F0000F81F4000131
:105BD00006BF80F400000132013BB5E74FEA410304
:105BE0007FEA226C18BF7FEA236C21D092EA030F70
:105BF00004D092F0000F08BF0846704790EA010FEA
:105C00001CBF0020704712F07F4F04D1400028BF16
:105C100040F00040704712F100723CBF00F50000F8
:105C2000704700F0004343F0FE4040F4000070472E
:105C30007FEA226216BF08467FEA236301464202DA
:105C400006BF5FEA412390EA010F40F480007047ED
:105C50004FF0000304E000BF10F0004348BF404293
:105C60005FEA000C08BF704743F0964301464FF0CF
:105C700000001CE050EA010208BF70474FF000032B
:105C80000AE000BF50EA010208BF704711F000436C
:105C900002D5404261EB41015FEA010C02BF84463C
:105CA0000146002043F0B64308BFA3F18053A3F59B
:105CB0000003BCFA8CF2083AA3EBC25310DB01FAE2
:105CC00002FC634400FA02FCC2F12002BCF1004F66
:105CD00020FA02F243EB020008BF20F001007047F7
:105CE00002F1200201FA02FCC2F1200250EA4C004B
:105CF00021FA02F243EB020008BF20EADC70704791
:105D00004FF0FF0C1CEAD0521EBF1CEAD15392EA9E
:105D10000C0F93EA0C0F6FD01A4480EA010C40027A
:105D200018BF5FEA41211ED04FF0006343EA5010D4
:105D300043EA5111A0FB01310CF00040B1F5000F16
:105D40003EBF490041EAD3715B0040EA010062F1C5
:105D50007F02FD2A1DD8B3F1004F40EBC25008BFAF
:105D600020F00100704790F0000F0CF0004C08BFCD
:105D700049024CEA502040EA51207F3AC2BFD2F19A
:105D8000FF0340EAC250704740F400004FF00003A8
:105D9000013A5DDC12F1190FDCBF00F000407047E2
:105DA000C2F10002410021FA02F1C2F1200200FA20
:105DB00002FC5FEA310040F1000053EA4C0308BFE7
:105DC00020EADC70704792F0000F00F0004C02BF38
:105DD000400010F4000F013AF9D040EA0C0093F0B3
:105DE000000F01F0004C02BF490011F4000F013B0D
:105DF000F9D041EA0C018FE70CEAD15392EA0C0F7B
:105E000018BF93EA0C0F0AD030F0004C18BF31F0E5
:105E1000004CD8D180EA010000F00040704790F0BB
:105E2000000F17BF90F0004F084691F0000F91F05F
:105E3000004F14D092EA0C0F01D142020FD193EA25
:105E40000C0F03D14B0218BF084608D180EA0100AD
:105E500000F0004040F0FE4040F40000704740F089
:105E6000FE4040F4400070474FF0FF0C1CEAD05257
:105E70001EBF1CEAD15392EA0C0F93EA0C0F69D0B3
:105E8000A2EB030280EA010C49024FEA402037D01E
:105E90004FF0805343EA111143EA10130CF0004015
:105EA0008B4238BF5B0042F17D024FF4000C8B4205
:105EB00024BF5B1A40EA0C00B3EB510F24BFA3EBE5
:105EC000510340EA5C00B3EB910F24BFA3EB9103B5
:105ED00040EA9C00B3EBD10F24BFA3EBD10340EA0F
:105EE000DC001B0118BF5FEA1C1CE0D1FD2A3FF655
:105EF00050AF8B4240EBC25008BF20F0010070470A
:105F00000CF0004C4CEA50207F32C2BFD2F1FF03AC
:105F100040EAC250704740F400004FF00003013ADD
:105F200037E792F0000F00F0004C02BF400010F481
:105F3000000F013AF9D040EA0C0093F0000F01F095
:105F4000004C02BF490011F4000F013BF9D041EAB7
:105F50000C0195E70CEAD15392EA0C0F08D14202EA
:105F60007FF47DAF93EA0C0F7FF470AF084676E7BD
:105F700093EA0C0F04D14B023FF44CAF08466EE796
:105F800030F0004C18BF31F0004CCAD130F0004264
:105F90007FF45CAF31F000437FF43CAF5FE700BFBC
:105FA000844641EA000313F0030349D1403A23D366
:105FB0000B6803604B6843608B688360CB68C36089
:105FC0000B6903614B6943618B698361CB69C36171
:105FD0000B6A03624B6A43628B6A8362CB6AC36259
:105FE0000B6B03634B6B43638B6B8363CB6BC36341
:105FF00040304031403ADBD230320BD30B68036083
:106000004B6843608B688360CB68C360103010318D
:10601000103AF3D20C3205D351F8043B40F8043B5C
:10602000043AF9D2043208D0D2071CBF11F8013B60
:1060300000F8013B01D30B8803806046704700BF26
:10604000082A13D38B07B1D010F00303AED0C3F1ED
:106050000403D21ADB071CBF11F8013B00F8013B17
:10606000A4D331F8023B20F8023B9FE7043AD9D38E
:10607000013A11F8013B00F8013BF9D20B780370AB
:106080004B7843708B788370604670477047000090
:10609000054A816082610022027102700922427009
:1060A00001228270C27070478D60000800797047CD
:1060B00010B508460C46072100F0E1FBE3791B1AF6
:1060C0005842584110BDF8B5054680680E4617463F
:1060D00000F055FB0024A868314600F05CFB60B17D
:1060E000E3B2BB4205D128463146FFF7E1FF00B1DC
:1060F000F8BD0134E3B2BB42EDD90020F8BD70B564
:1061000004460E468068154600F06EFAA0683146D7
:1061100000F020FBBE210022A06800F0E9FAA06890
:1061200000F008FB2870A06800F004FB6870A0680D
:1061300000F000FBA870A06800F0FCFAE870A0680E
:1061400000F0F8FA2871A06800F0F4FA6871A0680D
:1061500000F0F0FAA871A06800F0ECFAE871A0680D
:1061600000F0E8FA2872A068BDE8704000F03CBA80
:1061700010B51446FFF7C3FF2046082100F07FFB4F
:10618000237A1B1A5842584110BD70B504460E467A
:106190008068154600F028FAA068314600F0DAFA67
:1061A000A0684E21002200F0A3FAA068A97800227E
:1061B00000F09EFAA068E978002200F099FA33789E
:1061C000102B04D0A0682979002200F091FAA06871
:1061D00000F00AFAA0684821227800F089FA2378B2
:1061E00013B10A2001F06CFAA068BDE8704000F01D
:1061F000FBB938B504460D46806800F0F5F9A06893
:10620000294600F0A7FAB4210022A06800F070FA35
:10621000A06800F04FFA0546A06800F0E5F9D5F156
:10622000010038BF002038BD7FB5144601AA0646DC
:106230000D46FFF79DFFB8B12B78102B13D00B2C18
:1062400007D00C2C03D00A2C05D13F2304E07F2378
:1062500002E05F2300E01F233046294601AA8DF8A3
:106260000830FFF792FF012004B070BD1FB50B7816
:10627000102B17D001AAFFF77BFFA0B19DF80830C3
:106280003F2B0BD002D81F2B0CD005E05F2B07D083
:106290007F2B01D10C2006E0002004E00A2002E060
:1062A0000B2000E0092005B05DF804FB30B5044682
:1062B00087B0806800F063FA00232371A06801A909
:1062C00000F069FA28B3204601A9FFF7F1FE002883
:1062D000F4D0237823B9204601A9FFF78AFFA8B993
:1062E000204601A903AAFFF70AFF204601A9657805
:1062F000FFF7BCFF854201D9607803E0204601A981
:10630000FFF7B4FF237960700133D6E701232370D0
:10631000E6E707B030BD1FB501AAFFF7F0FE9DF814
:106320000400003018BF012005B05DF804FB70B513
:1063300004460D4692B1C37883B1037873B901F076
:10634000B9F9064620460021FFF7E5FF30B901F014
:10635000B1F940F2ED23801B9842F3D92B780A2B38
:1063600005D00B2B05D0092B06D15E2006E0BC2002
:1063700004E040F2771001E040F2EE20BDE870400A
:1063800001F09EB910B50446806800F02DF9A068B0
:1063900000F0F1F9A0684421227800F0A9F9A3786F
:1063A00033B12046611C0022BDE81040FFF7BFBF9B
:1063B00010BD0000F8B516463378527843EA022043
:1063C0000A78222A27D0282A25D0102A4AD140F339
:1063D0004E00FFF741FCFEF7FFFF0022224BFEF7C5
:1063E0009BFEF7790446B0790D46381AFFF734FC66
:1063F00006463846FFF72CFC01463046FFF734FDD1
:10640000FEF7EAFF02460B4620462946FEF786FEC7
:10641000FFF718FBF8BD32793F2A1CD008D81F2A95
:1064200020D140F3CC00FFF717FC4FF07C510FE078
:106430005F2A07D07F2A15D100B2FFF70DFC4FF07D
:10644000765105E040F34E00FFF706FC4FF078511F
:10645000FFF756FCF8BD40F38D00FFF7FDFB4FF052
:106460007A51F5E70020F8BD0000D03F30B585B087
:1064700001AA05460C46FFF77BFE28B128462146B7
:1064800001AAFFF797FF00E0014805B030BD00BF4B
:106490000000FEC20078704708B5FEF79DFF06A316
:1064A000D3E90023FEF7ECFF0022054BFEF736FE92
:1064B000FFF7C8FA08BD00BFCDCCCCCCCCCCFC3F9C
:1064C00000004040AFF3008007B5002100910A466C
:1064D0000B46034801F0E4F903B05DF804FB00BF8C
:1064E0000C0B002038B504460D460846012101F08A
:1064F00067F82580204638BD0388034A1B01D11860
:10650000D3588A885A61704708000020F7B502887E
:10651000124B120199189C58114A054694428F88D3
:106520001E4608BF042003D00E4B9C4203D1082016
:10653000012106F0E9FE10238DF8073003238DF8C2
:1065400006302B88ADF8047006EB03160023B373F6
:10655000204601A906F0BCFD03B0F0BD08000020F4
:1065600000080140000C01400388034A1B01D118B8
:10657000D3588A881A61704708000020F7B502884E
:10658000114B120199189C58104A054694428F8865
:106590001E4608BF042003D00D4B9C4203D10820A7
:1065A000012106F0B1FE04238DF807302B88ADF8E9
:1065B000047006EB03160123B373204601A906F00D
:1065C00087FD03B0F0BD00BF0800002000080140B7
:1065D000000C01400388034A1B01D118D058898858
:1065E00006F0C4BD0800002038B5044601F0FAF8F2
:1065F0002046FFF7C3FF01F00BF97D25013D15F0A3
:10660000FF052AD0022001F05DF82046FFF7E2FFE7
:106610000028F3D001F0E6F82046FFF76DFF204692
:10662000FFF774FF01F0F4F84FF4F07001F04AF84E
:1066300001F0D8F82046FFF7A1FF462001F042F80C
:106640002046FFF7C7FFD0F1010538BF002501F054
:10665000DFF84FF4CD7001F035F8284638BDCB0790
:1066600010B5044611D501F0BDF82046FFF744FFF0
:106670002046FFF74BFF0A2001F024F82046FFF7E1
:1066800073FF01F0C5F8372010E001F0ABF82046A9
:10669000FFF732FF2046FFF739FF412001F012F8E3
:1066A0002046FFF761FF01F0B3F80520BDE8104078
:1066B00001F008B810B5044601F094F82046FFF741
:1066C00025FF2046FFF718FF032000F0FBFF2046C0
:1066D000FFF754FF0A2000F0F5FF2046FFF77AFF8E
:1066E000044601F095F8352000F0ECFF204610BD7F
:1066F0002DE9F0410446884617460825012616EA8A
:10670000080F0CBF002101212046FFF7A8FF7600EB
:10671000013DF6B2F3D15FB901F064F82046FFF70E
:106720002DFF2046FFF7E8FEBDE8F04101F070B80C
:10673000BDE8F081F8B50746082500240126384653
:10674000FFF7B8FF00B134437600013DF6B2F6D151
:106750002046F8BD70B500220D4655210646FFF7CC
:10676000C7FF0024295D304600220134FFF7C0FF37
:10677000082CF7D170BDCC210022FFF7B9BF002350
:1067800083720373C3720723C218002191700BB187
:10679000013BF9E770472DE9F047057B0446894640
:1067A000002D59D1FFF720FF20B9A0722073E072AD
:1067B000BDE8F0872A462046F021FFF799FF012621
:1067C000A846AA4635462046FFF774FF07462046EE
:1067D000FFF770FF012F02D1012815D132E0874267
:1067E00004EB080318D1A27A954205D29A78164292
:1067F0000CBF0027012702E014BF002701271FB9A3
:10680000082D08D8E57206E004EB08039A78012702
:1068100032439A7004E0AA469A7822EA06029A70F5
:10682000204639467600FFF71AFF013516F0FF06BD
:10683000EDB204D108F101085FFA88F80126B8F139
:10684000070FC0D9402D07D984F80AA0BAF1000F6C
:1068500010D1012323730DE00020A0722073E07299
:106860000023E218927809F803200133082BF8D1AD
:10687000BDE8F087A378002BEED00120F0E70023DD
:1068800070B505461846DAB2914215D0EA5C082484
:1068900082EA000616F0010F4FEA500018BF80F0A0
:1068A0008C0004F1FF3418BFC0B214F0FF044FEAAB
:1068B0005202EDD10133E6E770BD000007B50021BB
:1068C00000910A460B46034800F0EAFF03B05DF86A
:1068D00004FB00BF140B002038B5054600242B5DD7
:1068E0000F2B03D80648074901F022F8295D044818
:1068F0001022013401F083F8082CF0D138BD00BF1C
:10690000881900208C59010873B501461148FFF71A
:10691000ADFD114C05461149204601F009F8284605
:10692000FEF75AFD022602460B460096204601F06D
:106930000FF90B49204600F0FBFF2846FFF7ACFD9E
:10694000FEF74AFD009602460B46204601F005F987
:1069500002B070BD1C0B002088190020EC58010803
:10696000F558010808B52E484FF4165101F042FAC7
:106970002C492B4800F0F1FF2B49294800F0D8FFA3
:106980002A48FFF793FC2A49254800F0D1FF274801
:10699000FFF78CFB0A220146214801F030F8254917
:1069A0001F4800F0DAFF1E48234900F0C1FF1F48CE
:1069B000FFF770FD10B11A48204901E0184820493E
:1069C00000F0CBFF1948002200F11C01FFF77BFB10
:1069D00018B913481B4900F0C0FF1B49104800F0CC
:1069E000A7FF1A48FFF778FF0D4800F0AAFF0F48ED
:1069F000092200F11C01FFF717FC1549084800F0B7
:106A000097FF0A4800F11C01FFF730FC0A220146FB
:106A1000034800F0F4FFBDE80840014800F091BFD2
:106A200088190020FF5801082A5901081C0B002072
:106A30003E590108455901084F5901086359010899
:106A4000665901086A5901088E590108380B00205F
:106A5000A159010838B50B4D0B4C0C49284600F0E4
:106A600067FF2046FFF78EFC2846094900F075FFB6
:106A700004F11C00FFF748FFBDE838404FF47A707E
:106A800000F01EBE881900201C0B0020B759010819
:106A9000D259010837B50B4C00210A460B4600912C
:106AA00004F12C0504F1240000F0FAFE284603212D
:106AB000FFF718FD2046294603B0BDE83040FFF738
:106AC000E7BA00BF1C0B0020013101EB42029142EA
:106AD0000BD0030F092B94BF3033373301F8013C3F
:106AE0000023000101F8023BF1E7704710B54FF0B9
:106AF00000604FF4A04106F02BF90124284B2948EF
:106B000021461C7006F03CFB04F050FC04F030F908
:106B10002146402006F0ECFB6FF07F4004F0A0FA25
:106B2000E72004F019FB204B1C7004F061F97D2074
:106B300006F002FC18B11D4B1C7006F011FC40F66B
:106B4000B83004F0BEF904F001FF05F093F81848DE
:106B500001F0C6FA174B01221A7001F04DFB164BDB
:106B60001B781BB9154B1B78002BF6D0144B1B78E8
:106B7000002BF2D10D4B1B78002BEED10F4C23785C
:106B8000012B01D00F4B33B90F4B0BB1FFF762FF55
:106B900000F0FCFCE1E7FFF7E5FE01232370F3E7DB
:106BA0002E1A002000043000B3190020E423002036
:106BB00061730008C0190020B1190020580B002093
:106BC000B219002065690008556A00085C4A2DE981
:106BD000F04153681646013353605A4B196811B19E
:106BE0001A68013A1A60584B584D1B782BB1584B14
:106BF0001B78EBB1574B4BBB1AE0574C236813B1D2
:106C00002368013B13E02B7893B9544B1B787BB975
:106C1000534B1B7863B9DFF86C81524F98F8003002
:106C2000CBB1E72004F00CFB3B7893B11423236035
:106C30002B784D4C03F0FF07002B34D1384604F07D
:106C4000FFFB40F6B73398421CD82CE000F0D0FB95
:106C5000EEE70123EBE73B7853B14FF6FF7004F00A
:106C6000FFF9E72004F078FA012388F80030DFE725
:106C7000E72004F09FFA3D4B1B780BB13223D6E797
:106C80006423D4E7384604F0E3FB2378C3B9384BD8
:106C90001B782BB1354B334A1B7812781A424CD0F3
:106CA00001232B700CE0002004F0CAFB41F657339F
:106CB000984205D9002004F0CBFB2E4B01221A701C
:106CC000237853BB254B1B7803F0FF02ABB1B168AF
:106CD00041F2873291421A4B0BD9BFF34F8F264AAC
:106CE000264BD16801F4E0610B43D360BFF34F8FB3
:106CF000FEE79A6801329A600FE01A4B1B7863B185
:106D0000F06847F22F5188420D4B03D9DA6000F04A
:106D1000FFFB02E0DA680132DA60194B1A68B2F55B
:106D20007A7F05D3BDE8F04100221A6006F080BAF0
:106D30001A6801321A60BDE8F08100F0E9FBAFE7A4
:106D4000580B0020EC230020181A0020AE19002058
:106D5000F00E0020F1730008E8230020B219002093
:106D6000B4190020B1190020BF190020B01900206B
:106D7000AF190020B619002000ED00E00400FA056C
:106D8000F0230020B319002008B5094B186004F067
:106D900083FD002004F0CCFD064804F011F804F057
:106DA00093FD04F0B1FDBDE8084005F063BD00BFF0
:106DB000C8010020A0860100074B1B68052B08D1E5
:106DC000064B1A7C012A04D1987C1B7DC01AC0B2E4
:106DD00070470020704700BF481A0020580B002061
:106DE0000D4B10B51B68052B13D10C4C237C012BCC
:106DF0000FD1628AA38AD31A012B04D10023032066
:106E0000237405F08EFEA38A5A1CA2821C44A07D26
:106E100010BD4FF0FF3010BD481A0020580B002065
:106E2000084B1B68052B0CD1074B9A6D9918013242
:106E3000B2F5807F9A6508BF002281F85C0008BF28
:106E40009A657047481A0020580B0020F8B5234B6C
:106E500093F85C21012A3FD0D3F86021996DB2F5F7
:106E6000807F04BF0022C3F86021D3F860411B4A31
:106E70008C4203D1002382F85C31F8BD8CBFC4F58D
:106E80008071C4EB0101C2F86411D3F86461134D41
:106E9000402EA2B207D94034403EC5F86041C5F843
:106EA0006461402706E034440021B7B2C5F8604170
:106EB000C5F864110A4801241044C0213A4683F8F9
:106EC0005C4105F0A9FD2046394605F0ADFE20469F
:106ED000BDE8F84005F012BEF8BD00BF580B002019
:106EE000B40B0020094B10B593E8140008331B685D
:106EF000D0180AD006490822FFF7E6FD20460549CA
:106F00000422BDE81040FFF7DFBD10BDE8F7FF1F0A
:106F1000770100208701002038B504460D46AC42B9
:106F200003D254F8043B9847F9E738BD08B5074841
:106F30000749FFF7F1FF07480749FFF7EDFFBDE8F5
:106F4000084006480649FFF7E7BF00BF485C010854
:106F5000485C0108485C0108985C0108985C0108DD
:106F6000985C0108FEE70000054A08B5136818445C
:106F70001060044A904201D90AF0CCFF184608BDBF
:106F800000000020004800204FF0FF307047012033
:106F900070470000014B1868704700BFC00C00200C
:106FA000064B0246582000FB013101F1080303CBD8
:106FB0001060516018689060704700BFC00C0020DE
:106FC000014BD3F864017047C00C0020064B024609
:106FD000142000FB013101F5B67303CB1060516042
:106FE00018689060704700BFC00C002038B5054697
:106FF000064C28B104F0D6F8012384F8303238BDAD
:1070000004F07EF884F8305238BD00BFC00C002078
:107010000E4B2DE9F041D3F8647180460024BC4248
:1070200011DA14256543094E414606F5B670284429
:107030000C220BF01DFF20B93544D5F86801BDE8DE
:10704000F0810134EBE70020BDE8F081C00C0020A6
:107050002DE9F041274B86B01B7880460F46002B68
:1070600042D1254B1B7803F0FF04002B3CD1234D6C
:1070700006AAD5F834020121460902EB860600F083
:107080001F0291408DF80C408DF80D408DF80E4098
:107090008DF80F4056F80C2C01300A4346F80C2CA2
:1070A00041F28832059204AA0092214603AA23469F
:1070B000049402F0E1FF002818DDD5F8343206AA66
:1070C000590902EB810151F80C5C03F01F021541D4
:1070D00015F001000AD01846414623463A4603F00F
:1070E000DDF8074B1C6001E04FF0FF3006B0BDE853
:1070F000F08100BFBE190020BF190020C00C002085
:10710000640B00202DE9F041274B86B01B788046A8
:107110000F46002B42D1254B1B7803F0FF04002BB8
:107120003CD1234D06AAD5F834020121460902EBD1
:10713000860600F01F0291408DF80C408DF80D403E
:107140008DF80E408DF80F4056F80C2C01300A4394
:1071500046F80C2C41F28832059204AA009203A949
:1071600022462346049402F087FF002818DDD5F854
:10717000343206AA590902EB810151F80C5C03F084
:107180001F02154115F001000AD01846414623465A
:107190003A4603F009F8074B1C6001E04FF0FF305E
:1071A00006B0BDE8F08100BFBE190020BF19002065
:1071B000C00C0020640B0020044B01221A70044B09
:1071C00000224FF4C0201A6004F024BCB219002041
:1071D000600B0020034A00231370034A136004F07D
:1071E0007DBC00BFB2190020600B0020024B0022C2
:1071F0001A6004F035BC00BF600B00202DE9F04799
:1072000088B0804668460D4600F038FD1E4B0024CD
:10721000D3F800A054452DDA55B3582666431A4FCB
:10722000414607F1080030440C2207F104090BF035
:107230001FFEE8B928460BF0EBFD06F110034028CD
:1072400034BF02464022294609EB0300FEF7A8FEA0
:107250003E44012386F85830694604A8746800F05B
:107260002FFD04A8A047044604A800F0C5FC03E0D5
:107270000134CFE74FF0FF34684600F0BDFC2046F4
:1072800008B0BDE8F08700BFC00C002030B51E4834
:10729000ADF5797D06F00EFB002832D11B4B15A809
:1072A00004931B4B5FAD05931A4B039006931A4B47
:1072B0000CAC0793194B02950893194B0993194B82
:1072C0000A93194B0B93194B0C93194B0D93194BB4
:1072D0000E93194B0F93194B1093194B1193194B94
:1072E0001293194B1393194B149304F009FC28467D
:1072F00004F00CFC00940448154902AA04AB06F003
:10730000E0FA0DF5797D30BDF40F002051700008D2
:1073100005710008B9710008D57100083DBB00086F
:10732000ED710008ED6F0008B5760008956F000854
:10733000A16F0008FD710008C16F0008CD6F000843
:10734000717500081170000819BB00082DBB0008FA
:10735000E8F7FF1F014807F0B2B800BFF40F0020A4
:1073600030B502208DB00146112202F003FE051E49
:1073700028DB07A8144906F0B9FB0223ADF80C304E
:1073800016238DF80E3033238DF80F30E0238DF85F
:10739000103000238DF8113001238DF81230BB23FB
:1073A0008DF81330032403AB009310230193284678
:1073B00007A91322002302F07BFF013CF3D12846EA
:1073C00002F006FE0DB030BDE8F7FF1F10B5074C08
:1073D000FFF75CFF204606F070FA204606F0D5FD68
:1073E0000446FFF7BDFF204610BD00BFF40F00208C
:1073F00038B5114CD4F8445B2DB1D4F8443B013B73
:10740000C4F8443B38BDD4F8483B0C4A52F823003A
:1074100003F04EFEE72003F09FFE6423084AC4F801
:10742000443BD4F8483B126801339342C4F8483BCC
:10743000A8BFC4F8485B38BDC00C0020242F010849
:107440000400002030B5022085B00121062202F0A0
:1074500091FD041E1BDB0223ADF8003000238DF8E4
:10746000023035238DF803306946082310228DF849
:1074700004308DF805308DF806308DF8073002F0B5
:10748000CDFD0546204602F0A3FD284601E04FF061
:10749000FF3005B030BD000010B5054CD4F8340203
:1074A00002F096FD18B94FF0FF33C4F8343210BD26
:1074B000C00C002008B5FFF7EFFF012102200622D3
:1074C00002F058FD11490028C1F834021BDB0223E9
:1074D000A1F84C3B162381F84E3B332381F84F3BF8
:1074E000362381F8503BD02381F8513BE52381F8C6
:1074F000523B042381F8533B102201F64C31BDE886
:10750000084002F08BBD4FF0FF3008BDC00C0020DA
:10751000044B012200215A801980D986024B1A702F
:10752000704700BF781B0020BE1900200F4B2DE9CB
:10753000F041D3F8647180460024BC4211DA14256E
:1075400065430A4E414606F5B67028440C220BF0FE
:107550008FFC20B9354495F87801BDE8F0810134FD
:10756000EBE74FF0FF30BDE8F08100BFC00C00201A
:1075700008B5FFF7DBFF0138082803D8024B184491
:10758000007F08BD022008BD242F0108084B0022FF
:10759000D3F83C1203F510738A4208DA93F85000CE
:1075A00010B1002083F8500001325133F4E77047E6
:1075B000C00C0020014806F068B900BFF40F00209D
:1075C00014282DE9F34104460E4669D8FF2967D0F7
:1075D00000F0EEFA20B1A4F10D039BB2022B5FD9AB
:1075E00000F0E6F808B1012C5AD900F0CFFB20B129
:1075F000A4F112039BB2012B52D92B4D24012B195C
:107600002F59B3F80480294B9F4201D1042003E095
:10761000274B9F4203D10820012105F075FEADF8EC
:107620000480062E38D8DFE806F0040D13191F2851
:10763000310010238DF8073003238DF806302C44D9
:10764000002328E004238DF807302C44012322E096
:1076500048238DF807302C4402231CE028238DF8A2
:1076600007302C44032316E018238DF8073003233A
:107670008DF806302C4404230DE01C238DF80730D0
:1076800003238DF806302C44052304E000238DF8F5
:1076900007302C440623A373384601A905F018FDD2
:1076A00002B0BDE8F08100BF0800002000080140E2
:1076B000000C0140014B1868704700BF5C0B0020B4
:1076C00003F072BB03F07CBB07B5002100910A46B2
:1076D0000B46034800F0E4F803B05DF804FB00BF7C
:1076E00020180020024B18785B78C01A704700BF42
:1076F00028180020064B5A781978914204D9991815
:10770000013288785A7070474FF0FF30704700BFE1
:1077100028180020054B5A781978914202D9134451
:10772000987870474FF0FF30704700BF281800204E
:1077300070470000F8B5094B054693F8223016460D
:1077400053B10C468F18BC4206D02B6828461B68E4
:1077500014F8011B9847F6E73046F8BD28180020BA
:1077600010B50C4B012293F822408CB193F82340C2
:107770001F2C02D94260002010BD93F824001C1871
:1077800084F82510411CC9B283F8241083F8231013
:10779000104610BD28180020002242604FF47A7273
:1077A0008260014A02607047582F01087047704795
:1077B000014B93F8590070472818002013B5084C66
:1077C0000021009104F164000A460B4600F068F8BD
:1077D00004F16C0002B0BDE81040FFF7DDBF00BF50
:1077E00028180020094B4022C3F880208022C3F8CB
:1077F00080204FF40072C3F880204FF48062C3F8F9
:1078000080204FF40002C3F88020704700E100E0C0
:10781000074B40221A6080221A604FF400721A60EF
:107820004FF480621A604FF400021A60704700BF84
:1078300000E100E008B5034B53F8203003B198474E
:1078400008BD00BFA418002007B5002100910A461A
:107850000B46034800F024F803B05DF804FB00BFBA
:10786000E41800202DE9F041002407460E46254685
:107870003B1919790A22304600F0C1F82E218046C2
:10788000304600F059F801344044032C0544EFD150
:107890003046F9790A2200F0B2F82844BDE8F081B8
:1078A00030B58371034D9DF80C3005600171427154
:1078B000C37130BD782F0108044B054A1A600022BD
:1078C0001A715A719A71DA71704700BFEC18002072
:1078D000782F010807B5002100910A460B4603489E
:1078E000FFF7DEFF03B05DF804FB00BFF4180020D3
:1078F000F8B506460C468F180025BC4207D0336801
:1079000030461B6814F8011B98470544F5E72846E4
:10791000F8BD38B505460C46084641B10BF078FA7B
:107920002B6802465B6828462146984738BD38BD1B
:1079300008B5FFF7EEFF08BD08B503681B68984758
:1079400008BD38B50D210546FFF7F6FF0A210446AC
:107950002846FFF7F1FF204438BD38B50446FFF74D
:10796000D8FF05462046FFF7ECFF284438BD30B568
:1079700000238BB08DF82430012A98BF0A220DF124
:107980002304B1FBF2F303FB1211CDB2092D94BF16
:1079900030353735EDB2214604F801590BB119469F
:1079A000EFE7FFF7B6FF0BB030BDF8B506460D4662
:1079B000144622B90368C9B21B689847F8BD0A2A61
:1079C0000CD100290BDA2D21FFF7B6FF69420746DB
:1079D00022463046FFF7CBFF3844F8BDD2B2BDE8AF
:1079E000F840FFF7C4BF10B522B90268C9B21268E7
:1079F000904710BDD2B2BDE81040FFF7B8BFFFF707
:107A0000F2BF00002DE9F843194606461046144619
:107A10001D469DF820700AF055FA10B930464449C9
:107A200007E0204629460AF04DFA012805D14149D0
:107A30003046FFF76EFFBDE8F883204629464FF039
:107A400060423D4BFDF7ACFF10B130463B49F0E7DB
:107A5000204629464FF06042394BFDF783FF00284E
:107A6000F3D12046294600220023FDF77BFF40B1D9
:107A700030462D21FFF760FF05F1004380461D468B
:107A800000E080462F4B4FF0000900225FFA89F199
:107A9000B9420AD21046194600222B4BFDF71AFEB6
:107AA00009F1010902460B46F0E720462946FDF799
:107AB00035FB0D460446FDF7A5FF8146FDF76AFC40
:107AC00002460B4620462946FDF726FB0A220446BD
:107AD0000D4630464946FFF74AFF804427B13046FD
:107AE0001A49FFF716FF8044F7B1174B00222046D2
:107AF0002946FDF7C5FC0D460446FDF75BFF8146B0
:107B00000A2249463046FFF750FF80444846FDF7B9
:107B100051FC02460B4620462946FDF7FDFA013F7F
:107B200004460D46FFB2DFE74046BDE8F88300BFDC
:107B3000D7590108DB590108FFFFEF41DF59010860
:107B4000FFFFEFC10000E03F000024403C59010866
:107B50009DF800100091FFF755BF37B59DF818103C
:107B600004460091FFF74EFF05462046FFF7E9FE69
:107B7000284403B030BD000007B5002100910A463B
:107B80000B460348FFF78CFE03B05DF804FB00BF13
:107B90000019002007B5002100910A460B46034852
:107BA000FFF77EFE03B05DF804FB00BF081900205C
:107BB000014B587D704700BF10190020704700002E
:107BC00007B5002100910A460B460348FFF768FEFF
:107BD00003B05DF804FB00BF2819002007B50021A1
:107BE00000910A460B460348FFF75AFE03B05DF8C2
:107BF00004FB00BF3419002010B5044600680AF0E9
:107C0000B9FA204610BD10B50446006808B10AF064
:107C1000B1FA00232360A360636010BD38B5044649
:107C20000D46006801310AF051FE10B184E82100D0
:107C3000012038BD036810B5044613B143688B4278
:107C400007D22046FFF7EAFF20B1A3680BB92268EC
:107C50001370012010BD70B50E461146044615463E
:107C6000FFF7E8FF18B92046FFF7CDFF04E0A56055
:107C7000206831460BF06EF8204670BD38B5002301
:107C8000044603604360836003730D4639B10846C0
:107C90000BF0BEF8294602462046FFF7DCFF2046DF
:107CA00038BD884210B50B46044607D0096819B1A3
:107CB0009A68FFF7D0FF01E0FFF7A5FF204610BD4F
:107CC00010B5002304460360436083600373FFF72D
:107CD000E8FF204610BD000007B5002100910A46CC
:107CE0000B460348FFF7DCFD03B05DF804FB00BF63
:107CF0003C19002007B5002100910A460B460348B5
:107D0000FFF7CEFD03B05DF804FB00BF441900206F
:107D100007B5002100910A460B460348FFF7C0FD56
:107D200003B05DF804FB00BF4C1900204FF0FF309A
:107D30007047704708B52021034805F07EFD0030EC
:107D400018BF012008BD00BF0044004008B502482C
:107D500005F06FFD08BD00BF0044004008B50548B0
:107D600005F063FD0348802105F067FD0028F9D088
:107D7000012008BD00440040002242604FF47A72A6
:107D80008260014A02607047882F0108014B187C0D
:107D9000704700BF5419002013B5084C0021009112
:107DA00004F114000A460B46FFF77AFD04F11C00AB
:107DB00002B0BDE81040FFF7DFBF00BF541900203C
:107DC00070474FF0FF307047FFF70AB808B5FEF76D
:107DD000F3FF08BD08B50846FFF722F8012008BDEB
:107DE000002242604FF47A728260014A026070475A
:107DF000A82F01080846FEF7C7BF000013B5074CBF
:107E00000021009120460A460B46FFF749FD04F188
:107E1000080002B0BDE81040FFF7E2BF8019002063
:107E2000002303601846704700230360184670471C
:107E300000230360184670472DE9F0410B7886B0A7
:107E4000002B0C4614BF90464FF0000806460AF07F
:107E5000DFFF074620460AF0DBFF182301931E23AD
:107E60000125029302230393059000950494404654
:107E700031463A46002302F05FFB034B18705D70F9
:107E800006B0BDE8F08100BF9819002048F2020357
:107E9000984210B51AD006DC992846D048F2010362
:107EA00098420FD010BD48F2100398422CD048F2EF
:107EB000800398423CD11F4B01229A70DA70002255
:107EC0001A7110BD1B4B01225A7110BD194C6379F8
:107ED00053B1194B00224FF47F401A7003F0C0F8E1
:107EE000E72003F039F906E0A37913B1013BA37150
:107EF00001E00123A37500236371E37523766376A4
:107F0000A376E376237710BD0A7D0A4B52B901228E
:107F10004FF47F40DA7503F0A3F8BDE81040E72086
:107F200003F01AB90022DA7510BD024B01225A770C
:107F300010BD00BF98190020181A00201FB54FF47B
:107F400061504FF461610A223C238DE80F006846BE
:107F500001A902AA03AB01F053FB05B05DF804FBD5
:107F60001FB50023009301930293039301A8694670
:107F700002AA03AB01F00AFB05B05DF804FB0000A8
:107F800030B5514D00249FB0FF20AC70EC706C7088
:107F90006C71EC756C772C766C76AC76EC7603F0C5
:107FA0005FF8E72003F0D8F821462246204602F089
:107FB0009FFA2B46012103F8074F0E200A4601F0D5
:107FC000A5FB6B79012B05D1642002F0EDFE01F0D9
:107FD0003BF8F6E710210C2001F0E4FB3B4801F0F0
:107FE000A1FF3B4802F0F8FB012002F0D9FB6846F4
:107FF000384900F081FDAB786A78334C1A431AD1C6
:10800000A37F002B55D0FF2002F07CFB002850D12D
:108010001A24013C06D0E72003F0CCF8322002F00D
:10802000C3FEF6E70E20012122462B4BAC7101F076
:108030006DFBAC77DFE7E72003F08EF8A31D0E2081
:108040000121002201F034FBA37813B102F0E4FB1C
:1080500020702B7801210133AB7100221E4B0E20C2
:1080600001F054FB002001240146012202F040FAF5
:1080700021462246194B0E20EC7101F047FB02F01D
:10808000BBF9642002F090FE002002F06BF948F288
:108090004420EC7702F052FB4FF47F4002F0E0FF07
:1080A000E72003F059F8FFF749FF0023AB751FB035
:1080B00030BDE72003F07EF8FA2002F075FE684636
:1080C00000F07EFD97E700BF98190020C02F01083F
:1080D0005C010020397E00089E1900209F190020B5
:1080E000F0B5394C85B0206203F004FB03F044FA8C
:1080F000364B374A0093374B37490193374B384853
:108100000293384B00250393374B02F017F9642094
:1081100002F04AFE002002F025F9012348F2442033
:10812000E576E37702F00AFB304BA61D1A881F465E
:10813000012A06D00E2010212A46334601F0B8FA53
:10814000A0B1FF2002F0DEFA10210E2001F02AFB80
:1081500000210025755401311029FAD10E202A463C
:10816000234B01F0D3FA3D8003F012FC2379164D26
:1081700093B9AB7913B90123AB750DE0E87958B920
:108180000146012202F0B4F901212B4603F8071F32
:108190000E200A4601F0BAFA237963B90A4B9B7D97
:1081A0004BB1144801F0E4FAFFF7DAFE05B0BDE880
:1081B000F040FFF7C3BE4FF47F4002F051FFE720CD
:1081C00002F0CAFFEDE700BF9819002031B60008A1
:1081D000297E000845B60008217E0008B1B60008D7
:1081E0008D7E0008D9B60008317E0008AA02002062
:1081F0009E190020BC1900202DE9F3419B4C94F8F6
:108200002630002B40F0AF8094F82730002B40F050
:10821000AA80E37F03F0FF001BB902F0A3F801235B
:10822000E377A37D914E13B1FFF7AAFE07E0337900
:108230002BB1F37D03F0FF05002B00F0C080E27846
:108240008A4B012A13D1DA7D012A10D15B79012BE7
:108250000DD1032586480AF0DBFD013D82B2844939
:10826000012002F031F815F0FF05F3D1E57094F824
:1082700028307E4D43B92B7E002B40F0B7806B7EBB
:10828000002B40F0B380EDE0EB7D93B395F8273001
:108290007BBB2B7E002B00F0BA802AE02B4603F834
:1082A000092F0E200121032201F030FA4FF6FF7052
:1082B00002F0D6FEE72002F04FFFFFF7FBF80028A0
:1082C00080F2CE8094F82630684D002B40F0CA80B2
:1082D000FFF7B8F80028B4BF022303232B77237FCE
:1082E0000E2063720121634B032201F00FFA002379
:1082F0002376237E5D4D002B00F0B4806B7ECBB9DE
:10830000FFF764F8002811D002DA4FF47F0007E08D
:10831000012801D1584803E0022803D14FF0FF1093
:1083200002F09EFEE72002F017FF03E001236B76C8
:10833000524B1860FFF70EF8002840F09380504B26
:108340001B780BB102F0DCFE0023A376E3766376A4
:1083500023764A4B1B68002B00F08480434B01229C
:1083600083F826207EE0E37F002B3FF45AAF444B96
:108370001B780BB102F0C4FE002528466571E57537
:1083800084F82650E57725766576A576E576257717
:1083900003F0A2F9642002F007FDA37D3BB128465B
:1083A00001F0E0FF314B0122DA77FFF7E9FD4FF4EE
:1083B0007F4002F055FEE72002F0CEFE31E729466D
:1083C0002A46284602F094F82E480AF021FD2E4F46
:1083D000804638460AF01CFD00970190791F032063
:1083E00042462B4602F01EF8357128E7FFF754F895
:1083F00000234FF47F40A376E3766376237602F082
:108400002FFEE72002B0BDE8F04102F0A5BE6420D7
:1084100002F0CAFC05F1290001F038F92B7F002B8E
:108420003FF444AF4FF47F0002F01AFE237F0F4D5C
:1084300003F0FF02002B3FF431AFE72002F08CFE87
:108440004FF4FA7002F0B0FCE72002F093FE4FF414
:10845000FA7002F0A9FC2B7F013BDBB22B77E5E73A
:10846000012345E702B0BDE8F08100BF9819002064
:108470005F010020A11900200060FF00640B0020B4
:10848000181A0020660100206B01002007B50021AA
:1084900000910A460B460348FFF702FA03B05DF865
:1084A00004FB00BFFC1900207047FEE7FEE7FEE773
:1084B000FEE7704770477047FEF788BB08B5024B70
:1084C0000BB1AFF3008008BD0000000008B5024BFF
:1084D0000BB1AFF3008008BD0000000008B5024BEF
:1084E0000BB1FFF763F908BDAD77000808B5024B83
:1084F0000BB1FFF75CF908BDAF77000808B5024B78
:108500000BB1FFF75BFB08BDBD7B000808B5012080
:1085100004F050FD38B1012004F05AFD024B13B1B4
:108520000020FFF787F908BD3578000808B502205C
:1085300004F040FD38B1022004F04AFD024B13B1B3
:108540000120FFF777F908BD3578000808B5042049
:1085500004F030FD78B1042004F03AFD0020064B11
:108560000146188002F0AEFEBDE808400348102125
:10857000012205F012B908BD2A1A0020002C014082
:1085800008B5082004F016FD38B1082004F020FDDD
:10859000024B13B10320FFF74DF908BD35780008F1
:1085A00008B5102004F006FD38B1102004F010FDCD
:1085B000024B13B10420FFF73DF908BD35780008E0
:1085C00008B5202004F0F6FC38B1202004F000FDAE
:1085D0000E4B13B10520FFF72DF9402004F0EAFC03
:1085E00038B1402004F0F4FC084B13B10620FFF72B
:1085F00021F9802004F0DEFC38B1802004F0E8FC92
:10860000024B13B10720FFF715F908BD35780008B4
:1086100008B54FF4005004F0CDFC40B14FF40050C9
:1086200004F0D6FC174B13B10D20FFF703F94FF4FC
:10863000804004F0BFFC40B14FF4804004F0C8FC1F
:10864000104B13B10E20FFF7F5F84FF4004004F083
:10865000B1FC40B14FF4004004F0BAFC094B13B137
:108660000F20FFF7E7F84FF4006004F0A3FC38B1E7
:108670004FF4006004F0ACFCBDE8084002F010BB11
:1086800008BD00BF3578000808B51048102105F076
:10869000BDF8C8B10D48102105F0C3F8002002F064
:1086A000BFFE30B90A4B1A8892B20A3292B21A80CF
:1086B00008BD06481021002205F06FF8BDE808400B
:1086C0000020012102F0FEBD08BD00BF002C0140CA
:1086D0002A1A002008B5012004F090FE30B10120D4
:1086E00004F09CFEBDE8084004F072BE08BD000026
:1086F00008B5022004F082FEB0B10C4B00224FF40A
:1087000000301A7004F064FC012004F0BBFD10B1CD
:10871000012004F0C1FD04F05BFE022004F07EFEA7
:10872000BDE8084004F054BE08BD00BFBF190020DA
:1087300002F048BA00F062B838B514490B78012B42
:1087400023D1134A13680BB90B7038BD114C402B61
:10875000206881B205D94030403B2060136040253D
:1087600004E09DB203442360002313600A482A46B4
:108770000844C02104F050F90120294604F054FABD
:10878000BDE83840012004F0B9B938BDB40C002070
:10879000BC0C0020B80C0020B40B002008B5094B1D
:1087A00001221A70084B002203201A8004F06CFA90
:1087B000064B024618804FF488710548BDE8084012
:1087C00004F042B9680B00206C0B00206A0B0020FB
:1087D0006E0B0020074B1B68052B09D1064B1A684E
:1087E000511C052A196003D100221A60FEF72EBB26
:1087F000704700BF481A0020041A002070B52B4DA6
:108800002B4C2B682B4E9BB223802288338813403D
:10881000990508D54FF6FF532B60A3780133DBB2DF
:10882000A370FFF7D7FF2288338813401A0401D5BD
:1088300004F03CF82288338813405B0505D54FF6D9
:10884000FF332B601C4B5B689847228833881A40A3
:10885000900444BF4DF6FF722A6022881340D90469
:1088600005D54EF6FF732B60002003F0A9FB22888C
:10887000338813401A050BD5104B1B7813B103F046
:108880007FFB02E0022003F09BFB4FF2FF732B60A3
:10889000228833881340DB0507D54FF6FF632B6032
:1088A0000720BDE8704003F08BBB70BD445C004006
:1088B000081A002030240020D0010020CC02002023
:1088C000034B9B7A13B1034B05221A60704700BF1C
:1088D0000C240020481A0020014B04221A60704723
:1088E000481A0020034B1A78202A04BF00221A706D
:1088F000704700BF0C1A002070470000212810B5F7
:1089000008D1114B1B681B7803F07F03212B10D07B
:10891000022010BD2028FBD10B4B0C4A1B681B7892
:10892000107003F07F03212B094B18BF00230BB9F4
:10893000EEE7084B044A00241268204693615482F3
:108940009847204610BD00BF2C2400200C1A0020A0
:10895000A58900088D890008074B1B681B7803F068
:108960007F03212B06D100F0DF00022814BF022074
:1089700000207047022070472C24002009B10220FB
:1089800070470128FBD808467047000020B9034B08
:1089900008221B681A827047014870472C24002067
:1089A000C801002020B9034B08221B681A827047B7
:1089B000014870472C240020C801002010B5FEF7A4
:1089C00091FA054B00241B689C7203F0C1FA04F075
:1089D00071F9024B1C6010BD2C240020481A0020A5
:1089E000334B344A1B68D27910B500245A729C72FA
:1089F000DC72204604F03AF820464FF4007104F08F
:108A00003DF82046102104F047F82046402104F0AC
:108A1000DFF88021204604F0CBF8204604F094F8DB
:108A2000254B204693F8341004F00CF9204604F04E
:108A300078F80120214604F021F80120C02104F03B
:108A4000B7F80120202104F027F80120214604F086
:108A50003CF802204FF4C06104F010F802204FF4FB
:108A6000807104F0A5F80220214604F02EF80220BF
:108A7000202104F011F80320214603F0FFFF03201A
:108A80004FF4887104F0A4F80320402104F0DAF8D0
:108A900003204FF4405104F018F80320214603F05E
:108AA000FBFF204603F096FE044B01221A6010BD26
:108AB0002C2400202D300108C8010020481A002075
:108AC000014903F083BC00BF00020020014903F00C
:108AD0007DBC00BF08020020054B1B68DB78042B1F
:108AE00004D8044901EBC30103F070BC00207047B7
:108AF0002C2400201002002038B504460D46FFF754
:108B00006FF9204625614FF41651FFF773F920469F
:108B100038BD000007B5002100910A460B46034806
:108B2000FEF7BEFE03B05DF804FB00BF101A002084
:108B300070B506460D46002428460AF069F98442BD
:108B400008D2295D3046FFF745F9012002F02CF9E3
:108B50000134F1E770BD00002DE9F84304460F46EB
:108B600090460D46C7EB05095FFA89F92046FFF7E5
:108B70002DF90028FADD2046FFF726F9C145C6B2D7
:108B800006D100232B7020460C49FFF7D1FF0AE0E5
:108B90000D2EF6D00A2EF4D020463146FFF71AF9F2
:108BA00005F8016BDEE72046FFF710F9002803DD2A
:108BB0002046FFF709F9F6E7BDE8F8838F5B010867
:108BC000F0B585B00446FFF701F9002840F39D8019
:108BD0002046FFF7F9F8C0B2772868D104F11406EF
:108BE00000212122304604F1350509F001FE412221
:108BF0000021284609F0FCFD04F17607002384F8E3
:108C00007630204642497B70FFF792FF204631467E
:108C10002022FFF7A1FF20463E49FFF789FF0122EE
:108C200020463946FFF798FF94F87630A3F13002DA
:108C3000D2B2032AEFD8312B0BD120463649FFF7A9
:108C400077FF20463549FFF773FF20463449FFF789
:108C50006FFF94F87620B2F1300708D020463149F2
:108C6000FFF766FF204629464022FFF775FF2046A2
:108C70002D49FFF75DFF23693A463046294698475C
:108C800020462A49FFF754FF20462949FFF750FFA5
:108C900020462849FFF74CFF20462749FFF748FFA9
:108CA00020462649FFF744FF2046254928E0692849
:108CB0002BD1244B01AD93E8070085E8070020463F
:108CC0002149FFF735FF0026AF5D20463B0903F140
:108CD0003001392984BF03F15701C9B207F00F07EA
:108CE000FFF778F807F13001392984BF5737F9B217
:108CF00020460136FFF76EF80C2EE5D113492046C9
:108D000005B0BDE8F040FFF713BF05B0F0BD00BFF0
:108D1000E3590108EA590108175A01084D5A010898
:108D2000785A0108BE5A0108C95A01080C5B0108AB
:108D30002C5B01085F5B0108925B0108D15B0108B5
:108D4000025C0108E8F7FF1F185C01088F5B01084F
:108D5000002100F004B80D4B5B58435004310C481F
:108D60000C4B42189A42FFF4F6AF0B4A00F003B8DE
:108D7000002342F8043B094B9A42FFF4F9AF03F099
:108D80006DF8FEF7D3F8FDF7B1FE7047985C010867
:108D9000000000200C0B00200C0B00203C240020C5
:108DA000FFF7FEBF73B544790023022C01930FD067
:108DB000032C19D0012C2BD1164D2B692E4623B133
:108DC0002B6901A898470246B8B9B16801201BE099
:108DD000104DEB682E4623B1EB6801A89847024678
:108DE00058B9B16802200FE00A4D6B692E464BB1AD
:108DF0006B6901A89847024620B1A9682046BDF8D2
:108E0000043003E0B16803200022134600F05AFB4F
:108E100002B070BD781B0020072810B50BD80129BF
:108E200009D80124844001FA00F0034B1A6822EAB1
:108E3000040202431A6010BD5802002070B50121DF
:108E400086B0054604F00DFD430404462AD5B0F56E
:108E5000824F27D12846052104F003FD05EB800051
:108E6000EE1D0024C51DAE4206D03046022104F09E
:108E7000F8FC04360444F6E7724B1A8E92B2224490
:108E800092B21A86DA6B1444DC63D96B9A6B914206
:108E900040F0CA8093F84020002A00F0C5809B690A
:108EA000992031E024F4FF4020F07F0080B20028B8
:108EB00000F0978048F210039C4228D00CD8B4F5FB
:108EC000004F40F2BC8048F202039C4215D948F2A0
:108ED00004039C4211D0B2E048F280039C420CD0C3
:108EE00004D848F240039C424FD0A8E0B4F5024FAA
:108EF00003D0B4F5084F6BD0A1E0524B9A69002A19
:108F000000F092809B69204600210A4667E000231A
:108F1000EA1852790DF803200133042BF8D16B7A4B
:108F200005F10D008DF80430AB7A8DF80530EB7A41
:108F30008DF806302B7B8DF80730002300AA1A44E9
:108F4000C15C0133042B1172F8D105F1110000232B
:108F500000AA1A44C15C0133042B1173F8D105F146
:108F60001500002300AA1A44C15C0133042B1174BC
:108F7000F8D12B798DF81430324B9A69002A53D0EE
:108F80009B6920466946152229E0053500212846BF
:108F900004F06EFC04210090284604F069FC0821CE
:108FA0000190284604F064FC0C210290284604F04D
:108FB0005FFC10210390284604F05AFC214B0490DA
:108FC0009A69002A30D09B6920466946142206E03F
:108FD0001C4B9A6942B39B692046691D0122984740
:108FE00022E041F203039C4205D0A4F580530E3BDE
:108FF0009BB2012B1AD86C1D2046042104F038FCCA
:1090000039301CD12A790F4B00212046DA6204F056
:109010002FFC04210546204604F02AFC393003D1F8
:1090200028460121FFF7F8FE012009E0054B1B88C7
:109030009BB29C4204D0B4F5805FF5D100E00020E3
:1090400006B070BD781B002038B50A4C63889BB20F
:109050000BB9002038BD60680378042BF9D1FFF705
:10906000EDFE01280546F4D10023638001F05AFC8F
:10907000284638BD781B00202DE9F84F0446894664
:1090800092460025DFF87483B8F802309BB2002BBB
:10909000F8D0D8F804603378042B40F07381304660
:1090A000012104F0DEFB05463046FFF7C7FE00282D
:1090B00040F05F8141F207039D4206F1050755D854
:1090C00041F206039D4280F0AE8040F202239D42B1
:1090D00000F0A98014D80C2D09D8082D80F0A380A9
:1090E000002D00F04681062D00F2E1809BE00D2D61
:1090F00000F0968040F201239D4200F0918038E11B
:1091000041F202039D4218D8B5F5805F00F28B80D2
:10911000B5F5017F40F2848040F207239D4240F084
:1091200028813379384604F8013B002104F0A0FB84
:109130000146204604F087FB1BE141F204039D42F7
:1091400000F08B8040F2A1800021384604F090FBB3
:1091500004212060384604F08BFB083444F8040CEA
:1091600006F10D03224606F11D016FE041F21103E5
:109170009D4255D02BD841F20B039D4253D01CD8B1
:1091800041F209039D424ED000F28C800021384606
:1091900004F06EFB04212060384604F069FB0821CE
:1091A0006060384604F064FB0C21A060384604F08F
:1091B0005FFB04F10C0BE060DAE041F20F039D422B
:1091C00063D036D841F20D039D4246D0D1E042F241
:1091D00006039D4224D00BD8B5F5005F40F2C9804C
:1091E00042F204039D4288BF002300F2848017E00E
:1091F00042F208039D42C0F0BC8042F209039D4246
:109200000ED944F20B039D4240F0B3807379384687
:109210000121A8F8303004F024FBA8F83200A8E0BF
:1092200033792370A5E03846002104F021FB20604B
:109230009FE00021384604F01BFBA3464BF8040BCB
:109240000421384604F014FB606091E053F8040BED
:109250008B4242F8040BF9D18BE00021384604F030
:1092600007FB04212060384604F002FB08216060FF
:10927000384604F0FDFAE36804F1080B3933A060C6
:1092800076D10121FFF7C8FD72E00021384604F0D5
:10929000EFFA04212060384604F0EAFA083444F872
:1092A000040C66E0337923713B68236061E00021A0
:1092B000384604F0DDFA04212060384604F0D8FA7C
:1092C00008216060384604F0CCFA0A21A0603846D4
:1092D00004F0C7FA0C3444F8020C06F111032246DC
:1092E00006F1350153F8040B8B4242F8040BF9D117
:1092F0001B8813803DE0F2185279E2540133042BAD
:10930000F9D106F109000023C15CE2180133042BF6
:109310001171F9D106F10D000023C15CE21801338F
:10932000042B1172F9D106F111000023C15CE2187F
:109330000133042B1173F9D106F115000023C15C30
:10934000E2180133042B1174F9D106F1190000233E
:10935000C15CE2180133062B1175F9D106F11F002B
:109360000023C15CE2180133202B9176F9D100E093
:109370005C46B8F800309BB29D4223D11F4B0022BF
:109380001A801FE030460321B77804F06AFA83465A
:10939000B9F1000F0CD00421701D04F069FA0246E7
:1093A000CAF8000006F115014846D2B2FCF7F8FDF4
:1093B000791D20463144C7EB0B02FCF7F1FD002379
:1093C000A8F836300023A8F8023001F0ABFA337861
:1093D000042B05D1B5F5805F02D13046FFF7E2FCE2
:1093E000B8F800309BB2002B7FF44CAE034BD88E04
:1093F00080B200287FF446AEBDE8F88F781B0020CD
:1094000007284FF0010308D803FA00F0044B1A684C
:1094100010420CBF0020012070471846704700BF63
:1094200058020020034B1880084600210A46FFF727
:1094300023BE00BF781B002010B5034B0124DC863F
:10944000BDE81040FFF718BE781B002038B5034672
:10945000154601224A710C46881D194604F0FCF994
:10946000291D0570204601F01FFB002038BD38B5CE
:10947000BDF814500C462B44D518ADB202216171D1
:10948000A071E271294604F1080004F0E5F9691DB4
:10949000204689B201F008FB002038BD38B51344DE
:1094A0000C469DB202216171A0712946E27104F15E
:1094B000080004F0D1F9691D204689B2BDE83840A2
:1094C00001F0F2BA2DE9F84F1C4604F1020B032318
:1094D00001F107091FFA8BFB88710D464B71484655
:1094E0005946164604F0B8F9B4F57A7F824605F17C
:1094F0000B0812D8214604F0AFF92146504604F07B
:10950000ABF9314640462246FCF74AFDA11D2846EC
:1095100089B2BDE8F84F01F0C7BA4FF47A77B4FBCF
:10952000F7F30BEB430189B204F096F93946504644
:1095300004F092F9314640463A46FCF731FDA4F575
:109540007A74284640F2EE31A4B23E4401F0ACFAFF
:10955000B4F57A7F84BFA4F57A74A7B2A84688BF11
:109560004FF47A74314628F8054F4846224698BF92
:109570000027FCF715FDA11C404689B2264401F0E6
:1095800093FA0FB13C46E3E7BDE8F88FF7B51E4606
:10959000FF238DF80730194B00259C68475D631940
:1095A0000135042D5F72F9D100200D5C23180130C4
:1095B00004285D73F9D10021505C6318013104293E
:1095C0005874F9D104F11500002104F03CF900228F
:1095D000B35C83540132042AFAD12146142242F2A8
:1095E0000100FFF733FF42F201000DF10701FFF721
:1095F00019FF9DF9070003B0F0BD00BF781B0020E4
:109600002DE9F3411F46FF238DF807301E4B064618
:10961000D3F8088033680C46013B122B9CBF1423FF
:1096200033600B6808F10900013B122B9CBF142327
:109630000B6013681546013B122B9CBF142313606B
:109640003B68013B122B9CBF14233B60316804F044
:10965000FAF8216804F0F7F8296804F0F4F839689A
:1096600004F0F1F84146142242F20900FFF7EEFE41
:1096700042F209000DF10701FFF7D4FE9DF9070042
:1096800002B0BDE8F08100BF781B002010B5074B89
:109690000446996842F205000022FFF7D7FE2146F2
:1096A00042F20500BDE81040FFF7BCBE781B002069
:1096B0002DE9F3411F4602ACFF2304F8013D124B94
:1096C00086469D680E4605F109007146904604F0F5
:1096D000BAF8314604F0B7F8414604F0B4F8294628
:1096E0000C2240F20120FFF7B1FE214640F201209A
:1096F000FFF798FE002138460A46FFF79DFE9DF8C9
:10970000070002B0BDE8F081781B00202DE9F3418D
:10971000984602AD4FF0FF3345F8043D134B8646A3
:109720009E680C4606F10A007146174604F08BF855
:109730000C2104F088F8214604F085F8394604F03D
:1097400082F84146224606F11A00FCF729FC314610
:109750001022A3B29020FFF7A1FE40F2022029467A
:10976000FFF760FE019802B0BDE8F081781B002091
:1097700013B50B4B04469968002240F20720FFF70F
:1097800065FE40F207206946FFF74CFE9DF8033066
:109790009DF8000023709DF80430637002B010BD86
:1097A000781B002037B50E4A034694680D4604F135
:1097B0000900194604F047F8294604F044F8214608
:1097C000082240F20320FFF741FE40F203200DF192
:1097D0000601FFF727FEBDF8060003B030BD00BF4D
:1097E000781B00202DE9F0430023CA5CC2540133EA
:1097F000102BFAD10022344B467B991891F8018046
:109800000178847B88EA01089919C97A90F80CC01C
:1098100088EA01081919CF7A417880F810804F4002
:10982000C17B47745D1895F80B908578634489EA8D
:10983000050593F80B90C378FFB289EA030390F80B
:109840000490857488EA090890F80590EDB287EADB
:10985000090790F80690C37485EA090590F8079007
:10986000DBB283EA090390F8089080F814805FFA6D
:1098700088F888EA090890F809904775FFB287EAE6
:10988000090790F80A908575EDB285EA090590F808
:109890000B90C375DBB283EA0903013288EA0C0C32
:1098A0007E406C4059400A2A80F8188047768576B9
:1098B000C37680F81CC046778477C17700F110002A
:1098C00099D1BDE8F08300BF8230010810F0800F0D
:1098D0004FEA400018BF80F01B00C0B27047000084
:1098E0002DE9F04F91F8A03090F800A042788AEA74
:1098F000030A80F800A091F8A13097B0534043705C
:109900008278079391F8A23090F8049053408370C6
:10991000C278059391F8A33046795340C3700693FB
:1099200091F8A430827989EA030980F8049091F8CB
:10993000A53090F808805E40467191F8A630477ACD
:1099400053408371C279089391F8A730044653407D
:10995000C3710C9391F8A8304FF0000B88EA03080C
:1099600080F8088091F8A9305F404772827A91F8B8
:10997000AA30534083720993C07A91F8AB3094F8BF
:109980000CC04340E3720D9391F8AC3094F80DE0B5
:109990008CEA030C84F80CC091F8AD30A57B8EEAFC
:1099A000030E84F80DE091F8AE30E27B5D40A573C4
:1099B00091F8AF305A40464BE2739A449AF80B0143
:1099C00091F890A0994480EA0A00207099F80BA1C0
:1099D00091F8949098448AEA090984F8049098F8D8
:1099E0000B9191F898809C4489EA080884F80880D3
:1099F0009CF80B8191F89CC09E4488EA0C0C84F87A
:109A00000CC09EF80BC191F891E01F448CEA0E0E39
:109A100097F80BC191F89D701E448CEA0707677395
:109A200096F80B7191F899601D447E406672079E0E
:109A30000D981E4496F80B7191F8956084F801E03A
:109A40007E406671059E18441E4496F80B7191F88D
:109A50009A607740089E1E4496F80BE191F89E604C
:109A60008EEA0606DDF824E09E449EF80BC191F8CC
:109A700092E08CEA0E0E84F802E095F80BE191F882
:109A80009650A7728EEA0505A571069DA6731D4422
:109A900095F80B6191F89F5075400C9E1E4496F806
:109AA0000B7191F8936013447E40E67090F80B615F
:109AB00091F897007040E07193F80B2191F89B307A
:109AC000CDF81CB05340E573E3720D4602E000BFD1
:109AD00082300108A77894F80090103D87EA0900C9
:109AE000FFF7F4FEFFF7F2FEE67894F801B0824645
:109AF00086EA0B00FFF7EAFEFFF7E8FE2179A3797B
:109B000080EA060880EA0B0B83EA010003910293C6
:109B1000FFF7DCFEFFF7DAFE8AEA0909E6798AEA4E
:109B2000070A6779024686EA07000492FFF7CEFE2D
:109B3000FFF7CCFE049A029B03995340DBB294F8E2
:109B400008C00693A37A51404640C9B24740F6B2D6
:109B500083EA0C000293CDF804C005910896FFF744
:109B6000B5FEFFF7B3FE617AE67A024686EA0100A7
:109B700003910492FFF7AAFEFFF7A8FE049ADDF80E
:109B800004C00399029B82EA0C0C53404140C9B2C5
:109B90005FFA8CFCDBB20A91CDF824C00B9394F8E9
:109BA0000CC0A37B4640F6B283EA0C000293CDF8CA
:109BB00004C00C96FFF78AFEFFF788FE617BE67B08
:109BC000024686EA010003910492FFF77FFEFFF749
:109BD0007DFE049A029BDDF804C00399534082EA9B
:109BE0000C0C5FFA89F95FFA8BFB5FFA8AFA5FFA6D
:109BF00088F84140DBB24640C9B28BEA09005FFAFF
:109C00008CFC0F93F6B288EA0A030E910293CDF80A
:109C100034C0109683EA0006FFF758FE89EA000078
:109C200086EA000C5FFA8CFC84F800C08AEA0B001C
:109C3000CDF804C0FFF74AFE8BEA0000029B86EADB
:109C4000000B5FFA8BFB184684F801B0CDF844B0E6
:109C5000FFF73CFE8AEA000086EA000A5FFA8AFA09
:109C600088EA090084F802A0CDF848A0FFF72EFE8C
:109C700088EA0000059BDDF818B0DDF820A046401A
:109C8000FFB2F6B287EA03008AEA0B08E670139681
:109C900088EA0006FFF71AFE059948407040C0B2F6
:109CA000149020718BEA0700FFF710FE784086EAD7
:109CB0000007FFB2677140461597FFF707FE8BEA72
:109CC0000000059A7040C0B20690A0718AEA0200B6
:109CD000FFF7FCFD8AEA00000B990A9BDDF824A03F
:109CE000DDF830B04640F6B283EA0A000596E67128
:109CF0008BEA010686EA0007FFF7E8FD8AEA000022
:109D00000A9B0B9A87EA00085FFA88F882EA030048
:109D100084F80880FFF7DAFDDDF828A08AEA000061
:109D200087EA00095FFA89F9304684F80990FFF75D
:109D3000CDFDDDF82CB00C998BEA0000099A87EA7A
:109D4000000B5FFA8BFB81EA020084F80AB0FFF790
:109D5000BDFD0C9B0D99DDF838A05840109A474086
:109D60008AEA0100DDF83CA0FFB282EA0A03E7724A
:109D700083EA000A0293FFF7A9FD0D990F9A484064
:109D80008AEA00060E99F6B282EA01002673FFF70E
:109D90009DFD0E9A029B50408AEA0001C9B2617390
:109DA00018460391FFF792FD0F9BDDF834E0584011
:109DB0008AEA0002109BD2B2A27383EA0E000492D8
:109DC000FFF784FD109BDDF804C058408AEA000AC2
:109DD000494B5FFA8AFA84F80FA003EB0C0090F865
:109DE0000BC195F890001E448CEA00002070149876
:109DF0001F44184490F80BC195F894008CEA0000B9
:109E0000207103EB080090F80BC195F898008CEADC
:109E10000000207295F89C0096F80B610399704041
:109E20002073194491F80B0195F89110049A414060
:109E300003EB090090F80B6195F89D001A447040FF
:109E400060731598184490F80B6195F8990070406C
:109E500060721198184490F80B6195F89500617044
:109E6000129970406071194491F80B0195F89A109D
:109E700048400699194491F80B6195F89E1071407D
:109E800003EB0B0696F80BC195F892608CEA060678
:109E9000A67092F80B6195F89620A0727240139EFE
:109EA000A1731E4496F80B11A271059E95F89F2090
:109EB0001E4496F80B014A4095F8931053444140D4
:109EC000E17095F8971097F80B01DDF81CA0414060
:109ED000E17193F80B1195F89B30AAF1100A4B40F1
:109EE0001AF1900FE372E273CDF81CA07FF4F2AD8B
:109EF00017B0BDE8F08F00BF8230010838B5054CBF
:109F000005462046FFF76EFC28462146BDE838404E
:109F1000FFF7E6BC841A0020034610210C20002223
:109F2000FFF7C6BB034610210C200022FFF7EEBB53
:109F300038B505460E4CE36A4BB107F0F3FFE36A10
:109F400003600023E36207F0EDFF006838BD284698
:109F5000FFF756FA48B9228E92B2002AEAD0228E32
:109F600092B2013A92B2228638BD4FF0FF3038BD2E
:109F7000781B0020F7B5174602AC4FF0FF3244F8CB
:109F8000042D124A034695680E4605F1090019464C
:109F900003F059FC314603F056FC394603F053FCFC
:109FA0000C22294641F20100FFF750FA214641F206
:109FB0000100FFF737FA07F0B5FF019B00210360AE
:109FC0001846FEF729FF019803B0F0BD781B00206A
:109FD00073B54FF0FF3302AC44F8043D0E4B054619
:109FE0009E68294606F1090003F02DFC0422314643
:109FF00041F20B00FFF72AFA214641F20B00FFF76E
:10A0000011FA07F08FFF019B012103602846FEF73C
:10A0100003FF019802B070BD781B002037B54FF0E8
:10A02000FF320192134A034694680D4604F1090079
:10A03000194603F008FC082103F005FC082103F091
:10A0400002FC0023EA5CC2540133082BFAD114222B
:10A05000214641F20700FFF7F9F901A941F2070093
:10A06000FFF7E0F907F05EFF019B0360184603B0BD
:10A0700030BD00BF781B00202DE9FF411D46314B4C
:10A080008646D3F808800F4608F109007146164647
:10A090000A9C03F0D8FB142103F0D5FB142103F034
:10A0A000D2FB142103F0CFFB142103F0CCFBD4F13D
:10A0B000010138BF002103F0C6FB0FB1396800E091
:10A0C000394603F0C0FB0EB1316800E0314603F0C1
:10A0D000BAFB0DB1296800E0294603F0B4FB74B166
:10A0E000216839B9636841F287329342DCBF41F29B
:10A0F0008833636003F0A7FB616803F0A4FB41466B
:10A100002C2241F20800FFF7A1F941F2080069464C
:10A11000FFF788F9009B002B09DB0FB1019838602D
:10A120000EB1029830604DB10398286006E007F048
:10A13000F9FE009B03604FF0FF3000E0184604B0CA
:10A14000BDE8F081781B00202DE9FF419846154BB2
:10A1500007469D6814460E4605F10900394603F08E
:10A1600072FB214603F06FFB414603F06CFBBDF828
:10A17000304029460C222046FFF768F9204601A905
:10A18000FFF750F9029B002B04DD30460A990B9A29
:10A19000FFF752F907F0C6FE029B0360184604B0B1
:10A1A000BDE8F081781B00201FB5002400940194C5
:10A1B00041F204040294FFF7C7FF04B010BD000091
:10A1C0002DE9F04F89B0039114469B46139E149DD0
:10A1D0000290FFF7ADFEDDF808C0002858D12E4BE5
:10A1E000812D9A6B02F101029A63D3F8089009F16C
:10A1F0000A0307D0832D0AD104F1080A09F12208C5
:10A20000182704E009F11A08102706461290614643
:10A21000184603F018FB391F03F015FB214603F025
:10A2200012FB594603F00FFB832D05D1514603F075
:10A230000AFB082103F007FB4346C8EB030109B200
:10A24000A14204DA039A515C03F8011BF5E7832D60
:10A2500018460ED0129BB6B200930196E8B249465A
:10A260003A46A3B2FFF703F9832D0BD141F20F0059
:10A270000AE0191A09B2B142ECDA129A515C03F8F9
:10A28000011BF6E741F2030005A9FFF7CBF82046D2
:10A2900009B0BDE8F08F00BF781B00201FB5002477
:10A2A0000094019481240294FFF78AFF04B010BD4A
:10A2B0001FB5069C0094079C019483240294FFF729
:10A2C0007FFF04B010BD0000202A73B503460E4680
:10A2D000144624D8144A1946956805F1090003F07C
:10A2E000B2FA082103F0AFFA214603F0ACFA0346B4
:10A2F0001A1A12B2A24203DAB25C03F8012BF7E792
:10A3000004F10C022946D2B241F21100FFF79EF887
:10A3100041F2110001A9FFF785F8019801E04FF023
:10A32000FF3002B070BD00BF781B0020024B01223D
:10A330005A805860FEF788BE781B002010B5084C84
:10A34000E16022616361029BE361039B2362049BE2
:10A350006362059BA3620123A06184F8403010BDB5
:10A36000781B002070B5214C0023A363E363238096
:10A3700023866386A386E386E362638063601C4B67
:10A3800005461C48A36000F0ABFAE3699847A36A4E
:10A3900006460120984706B3E36998470028FBD199
:10A3A000002DA16814BF022300234B7201224FF439
:10A3B0008040FFF74BF84FF480400021FFF732F860
:10A3C000A16844F20B000022FFF740F8BDE870409E
:10A3D00044F20B000021FFF725B8E36998470028F5
:10A3E000FBD0E36998470028FBD1D9E7781B002010
:10A3F000E01B00202DA3000838B5094C0020A36AFB
:10A4000098472546EB69064C98470028FAD0A36880
:10A410000BB10023A360BDE8384000F075BA00BF5F
:10A42000781B00202DE9F04F994685B04FF0FF339F
:10A4300001932E4B1546D3F808A000248346884686
:10A440000AF109001C210F9E0E9F0294ADF80C40EA
:10A4500003F0F9F9294603F0F6F9594603F0F3F948
:10A4600005F1100103F0EFF9314603F0ECF9214654
:10A4700003F0F2F9B9F1000F08D019F804300355D0
:10A480000134062CF9D10630034607E04B4602AAF8
:10A490009A5CC2540133062BF9D1F4E71A1A12B2AE
:10A4A000AA4204DA18F8022003F8012BF6E719464D
:10A4B00046B13FB15A1A12B2B24203DABA5C03F89B
:10A4C000012BF7E71C367219D2B251460120FEF774
:10A4D000BDFF01A90120FEF7A5FF07F023FD019BA9
:10A4E0000360184605B0BDE8F08F00BF781B002060
:10A4F000F7B5174602AC4FF0FF3244F8042D0D4A71
:10A50000034695680E4605F10900194603F09BF9CC
:10A51000314603F098F9394603F095F929460C22A3
:10A520000420FEF793FF04202146FEF77BFF0198ED
:10A5300003B0F0BD781B00202DE9F04F144685B024
:10A5400000220292ADF80C206D4A8046D2F808A095
:10A550000F460AF1090041469B460F9D139E03F0EA
:10A5600072F9B8F1030F00F2BD80DFE808F0022CA9
:10A570007575142103F067F9214603F064F9002191
:10A5800003F06AF9BBF1000F07D000221BF802109C
:10A5900081540132062AF9D106E05B4602AA9A5C90
:10A5A000C2540133062BF9D106300E9903F04BF952
:10A5B00003461A1A12B2A24203D2BA5C03F8012B64
:10A5C000F7E718348CE0202103F03DF9214603F031
:10A5D0003AF9002103F040F9BBF1000F07D0002247
:10A5E0001BF8021081540132062AF9D106E05B46BD
:10A5F00002AA9A5CC2540133062BF9D10E99063097
:10A6000003F021F904F10C0103F01DF9294603F0D0
:10A610001AF9109903F017F903461A1A12B2A24256
:10A6200003D2BA5C03F8012BF7E7129804211A460B
:10A63000D61A36B2AE4203D2865D02F8016BF7E756
:10A640000139284401D01346F1E704EB850909F1EB
:10A6500024091FFA89F945E0282103F0F4F821467E
:10A6600003F0F1F8002103F0F7F8BBF1000F07D079
:10A6700000221BF8021081540132062AF9D106E0AB
:10A680005B4602AA9A5CC2540133062BF9D10E999B
:10A69000063003F0D8F8294603F0D5F8109903F0F6
:10A6A000D2F8119903F0CFF804F1080103F0CBF8C8
:10A6B000314603F0C8F803461A1A12B2A24203D276
:10A6C000BA5C03F8012BF7E719465A1A12B2B242E4
:10A6D00004D21298825C03F8012BF6E72C3634443E
:10A6E0001FFA84F951465FFA89F20520FEF7AEFEA3
:10A6F000052001A9FEF796FE019805B0BDE8F08F90
:10A70000781B002037B50C4B01469D6802AC05F163
:10A71000090003F098F84FF0FF3344F8043D294650
:10A7200004220620FEF792FE06202146FEF77AFE5E
:10A73000019803B030BD00BF781B002037B548F248
:10A74000080248F2080102408A42034613490BD12D
:10A750000020934281F840001ED023F4004323F0F0
:10A76000080343F4004302E0012281F840208D6891
:10A770004FF0FF32194602AC05F1090044F8042DF0
:10A7800003F061F8294604220820FEF75FFE082046
:10A790002146FEF747FE019803B030BD781B00202C
:10A7A00073B50C4B01469D684FF0FF3602AC05F1C6
:10A7B0000900019603F047F844F8046D2946042285
:10A7C0000A20FEF743FE0A202146FEF72BFE0198E1
:10A7D00002B070BD781B002013B50E4A4FF0FF3356
:10A7E0000193916898B154230370437083700022E1
:10A7F000845C8B180132032A5C72F9D10C20FEF7BD
:10A8000025FE0C2001A9FEF70DFE019800E0184678
:10A8100002B010BD781B0020F0B52E4887B0FFF7BE
:10A820007BFB0246002852D12B4D0D2043212B46A5
:10A83000FEF73EFF00284AD12E782649F71C7C19E6
:10A840002046FFF75BFB2B782B445B78102B04D959
:10A8500004F110001F49FFF751FBE37F1BB1EB5DD3
:10A860001F2B03D100E0EB5D013400E020232A78A8
:10A870001544AA78032A29D8DFE802F0020E191934
:10A880000020012300930190029003900490059012
:10A8900012493246034616E001208DE809000023E4
:10A8A00002930393049405930C4932460BE0012074
:10A8B00018211E2202258DE82700084905930494DB
:10A8C000032032460023FFF737FE00E0002007B0E8
:10A8D000F0BD00BFBC1B0020341B0020351B002036
:10A8E00008B50649064B00229A6018601961DA80A3
:10A8F000DA609A80034B1B6A984708BDE01F00206E
:10A90000CC1B0020781B002008B5044B1A690AB143
:10A9100000221A61024B5B6A984708BDCC1B0020DD
:10A92000781B0020024B4FF480725A60704700BFC2
:10A9300000E100E008B5074B4FF48072C3F88420B3
:10A9400000F06EFE044B022218699A6005301B6805
:10A95000984708BD00E100E0CC1B002070B506461A
:10A96000002014460D4600F04BFE012EA4B207D184
:10A9700030462946224600F0CBFD0020124907E070
:10A98000124B01201969224600F0C2FD0020294621
:10A99000224600F0BDFD0E480221012202F0A7FA76
:10A9A000012000F02DFE0A4802F0A9FA0028FAD191
:10A9B000084802F0A4FA0028FAD10748802102F0E2
:10A9C00070FD0028F9D170BD5C020020CC1B002076
:10A9D00058000240440002400038004003460A4646
:10A9E00001201946FFF7BABF70B50646002014468D
:10A9F0000D4600F005FE012EA4B207D130462946CF
:10AA0000224600F085FD0020104907E0104B012090
:10AA10001969224600F07CFD00202946224600F0FC
:10AA200077FD012000F0ECFD0A4802F068FA0028EA
:10AA3000FAD1094802F063FA0028FAD107488021C8
:10AA400002F02FFD0028F9D170BD00BF5C0200208C
:10AA5000CC1B002058000240440002400038004057
:10AA600003460A4600201946FFF7BEBF38B5044624
:10AA70000D4600F08BFE322000F0A2F921460422A0
:10AA80000020FFF7B1FF322000F09AF90020211DCD
:10AA90002A1FFFF7A9FF034B02229A6000F0C0FDB6
:10AAA000002038BDCC1B0020F8B501F0010383F075
:10AAB0000103012202700546CA18C2F30720AA70DA
:10AAC0004E1D0022194C6870EA702A71B6B21E44FD
:10AAD000A368B6B213B9A368012BFCD1A368012BFC
